:020000040800F2
:10000000C0120020B90B00080B1A0008F9160008EE
:10001000091A0008691200083926000800000000CB
:100020000000000000000000000000005523000850
:100030006B12000800000000131E00084524000891
:10004000D30B0008D30B0008D30B0008D30B000818
:10005000D30B0008D30B0008D30B00086D12000867
:10006000D30B0008D30B0008D30B0008D30B0008F8
:10007000D30B0008D30B0008D30B0008D30B0008E8
:10008000D30B0008D30B0008D30B0008D30B0008D8
:10009000D30B0008D30B0008D30B0008D30B0008C8
:1000A000D30B0008D30B0008D30B0008D30B0008B8
:1000B000D30B0008D30B0008D30B0008D30B0008A8
:1000C000D30B0008D30B0008D30B0008D30B000898
:1000D000D30B0008A5240008D30B0008D30B00089D
:1000E000D30B0008D30B0008D30B0008D30B000878
:1000F000D30B0008D30B0008D30B0008D30B000868
:10010000D30B0008D30B0008D30B0008D30B000857
:10011000D30B0008D30B0008D30B0008D30B000847
:10012000D30B0008D30B0008D30B0008D30B000837
:10013000DFF810D000F052FD00480047ED460008FF
:10014000AFF30080C0120020D2B201E000F8012B12
:10015000491EFBD270470022F6E710B513460A4647
:1001600004461946FFF7F0FF204610BD30B505469E
:100170002A460B4612F8010B13F8014B08B1A042B6
:10018000F8D01CB1002802D06D1CF1E7284630BD24
:10019000421C10F8011B0029FBD1801A704730B5B2
:1001A00004460020034600E05B1C934203D2E05C5F
:1001B000CD5C401BF8D030BD70B50F4D00B928683C
:1001C000002412E00A4602E09E4203D0521C13783B
:1001D000002BF9D1DAB2224305D02BB124B1002192
:1001E00000F8011B04E00446401C0678002EE9D10B
:1001F0002860204670BD00001C04002070B5064633
:1002000002F040FA046805460A220021304600F058
:100210009DFB2C6070BDF0B480EA0102D40F420057
:10022000B2EB410F02D20246084611464A0042D0C4
:10023000C30DDDB2C1F3C752AD1A202D35DAC1F3BB
:10024000160141F4000204B15242C5F1200602FA3F
:1002500006F12A411044B3EBD05F23D0C4B1012D85
:10026000A0EBC35009DCF0BC4FF0004202EAC352DD
:10027000DBB200F5000000F0AABB400000F1807086
:1002800000EBC350A0F1807040EAD170490009E052
:10029000490841EAC071A0EBC35000F500004008D6
:1002A00000EBC350F0BC00F089BB6142012202EBBD
:1002B0004101001BF6E7F0BC704781F00041AAE75E
:1002C00080F00040A7E730B480EA010202F0004568
:1002D00030F0004221F0004013D090B1C30DD40D96
:1002E000C2F31601C0F31600E41A41F4000140F411
:1002F00000027D34914201D3641C00E04900002CCF
:1003000002DA30BC002070474FF400000023914215
:1003100001D3891A034340084FEA4101F7D151B193
:10032000914202D14FF0004105E002D24FF00101AD
:1003300001E06FF0010103EBC450284430BC00F031
:100340003DBB2DE9FE4F804681EA0300C00F0C46FD
:10035000009021F0004123F00045B8EB0200A941D4
:1003600005D24046214690461C460B46024623F0E5
:100370000040104347D0270DC7F30A00C3F30A51CA
:100380000290401A019040286BDAC3F3130040F446
:10039000801B0098924620B10023D2EB030A63EB46
:1003A0000B0B01985946C0F14002504600F09DFAEF
:1003B00006460D4650465946019A00F0B5FA10EB34
:1003C00008006141002487EA115284EAE7731A4366
:1003D00040D0009A62B3019A012A4FEA075215DC15
:1003E000001B61EB02014FF0004202EA0752CDE927
:1003F0000042001C41F5801132462B4600F024FBE0
:1004000003B0BDE8F08F40462146F9E7001B61EBE1
:100410000201001C41F5801300185B412018A2F571
:10042000001747EB030140EAD570B6196D4111E0A2
:100430006D084FEA360645EAC0754FEA0752001BC1
:1004400061EB0201001C41F5801149084FEA3000C0
:100450000019514132462B4603B0BDE8F04F00F081
:10046000E4BA0098012240000023D0EB020263EBC3
:10047000E073009821464FEAE074B8EB000061EBAE
:100480000401E9E783F000435BE781F0004158E7AE
:100490002DE9FE4F81EA030404F0004421F00041FD
:1004A00000944FF0000B23F0004350EA01045ED0AB
:1004B00052EA03045BD0C3F30A54C1F30A552C4437
:1004C000A4F2F3340194A0FB0254C1F3130141F4EC
:1004D0008011C3F3130343F4801301FB024400FBB8
:1004E000034E840A970A44EA815447EA8357A4FBDF
:1004F000076802958D0A05FB07854FEA932C04FBDC
:100500000C542705029D4FEA065847EA1637B5EB0B
:1005100008056EEB070C870E920E47EA811742EA38
:100520008312A7FB0201B6EB0B0164EB00042B0D59
:1005300043EA0C335E1844EB1C50DA465146E7FBA5
:100540000201C5F313044FEA0B3343EA14534FEA95
:100550000432019C43EA0603A4F10C040294009CBB
:10056000CDE900B400F070FA03B0BDE8F08F0020D0
:100570000146F9E72DE9F04D81EA030404F0004B50
:1005800021F0004514464FF0000A23F0004150EAE4
:10059000050220D054EA01021DD0C5F30A570246D5
:1005A000C5F31303C1F31300C1F30A5640F48015D9
:1005B00043F48013A7EB0608101BD64608F2FD385B
:1005C00073EB050002D308F1010801E092185B41CA
:1005D000B8F1000F03DA00200146BDE8F08D0020DD
:1005E0004FF48011064684460EE0171B73EB050797
:1005F00005D3121B63EB050306434CEA010C4908C3
:100600004FEA300092185B4150EA0107EDD152EAFF
:10061000030012D082EA040083EA0501084305D0F2
:10062000101BAB4106D20122002306E000224FF04E
:10063000004302E06FF0010253101AEB06004CEB8E
:10064000085110EB0A0041EB0B01BDE8F04D00F042
:10065000ECB970B521F0004303430CD0C1F30A5547
:100660000024D5EB040564EB0403D617AD1AB3419F
:1006700002DB0020014670BD201841EB025170BD25
:10068000C10F80EAE0700844CA079623002100F0F9
:100690009EB996230022114600F099B90EB5C10FFC
:1006A00080EAE0700844CA07002140F233438DE835
:1006B0000E000A460B4600F0C7F903B000BD0EB5A8
:1006C00040F2334102910021CDE900110A460B4668
:1006D00000F0BAF903B000BD3EB5CA17CB0F002435
:1006E00050405140C0186141DA0740F23343009452
:1006F000CDE901232246234600F0A6F903B030BD20
:1007000000F0004220F00040C10DC0F3160040F49C
:1007100000007F2901DA00207047962903DCC1F12F
:100720009601C84001E096398840002AF4D0404242
:10073000704770B5C1F30A5201F000450024C1F3BF
:10074000130140F2FF3341F480119A4201DA002094
:1007500070BD40F233439A42A2F2334203DC52426C
:1007600000F0D2F800E090402C43F1D0404270BD40
:1007700070B5C1F30A5201F000450024C1F3130122
:1007800040F2FF3341F480119A4202DA0020014620
:1007900070BD40F233439A42A2F2334203DC52422C
:1007A00000F0B2F801E000F0A0F82C43F0D00023F4
:1007B000D0EB030063EB010170BD00F0004230F0AC
:1007C00000400AD0C10D01F56071C0F3160042EA85
:1007D0000151C2084007114370470020014670478D
:1007E00030B5041E71F1000404DB4FF000444042B8
:1007F00064EB0101141E73F1000405DB1C464FF08D
:100800000043524263EB0403994208BF904230BD5B
:1008100001F0004330B421F0004150EA010206D05B
:100820000A0DA2F56072C1F31301002A02DC30BC8C
:1008300000207047440F44EAC104C100E01830BCF6
:1008400000EBC25000F0BAB8002801DBC0F1004054
:10085000002901DBC1F100418842704730B50B46E9
:10086000014600202022012409E021FA02F59D42E0
:1008700005D303FA02F5491B04FA02F52844151EB4
:10088000A2F10102F1DC30BD2DE9F05F0546002048
:1008900092469B4688460646814640241BE02846F1
:1008A00041464746224600F02FF853465A46C01AA2
:1008B000914110D311461846224600F016F82D1A21
:1008C00067EB01084F4622460120002100F00DF899
:1008D00017EB00094E41201EA4F10104DFDC48465D
:1008E00031462A464346BDE8F09F202A04DB203AE1
:1008F00000FA02F1002070479140C2F1200320FA73
:1009000003F3194390407047202A04DB203A21FA70
:1009100002F00021704721FA02F3D040C2F1200218
:100920009140084319467047202A06DBCB17203A2E
:1009300041FA02F043EAE07306E041FA02F3D040E4
:10094000C2F1200291400843194670472DE9F04753
:1009500091460F4680460446002614F8015B2DB1EF
:1009600000F04EF90068405DC007F6D12B2D02D093
:100970002D2D18D0641E4A463946204600F044F911
:1009800027B13968A14201D1C7F8008071054FF045
:1009900002040BD54042002803DD01F073FE046021
:1009A000A007BDE8F08746F48066E4E70028F8DA9F
:1009B00001F068FE04606FF00040F2E70029A8BF74
:1009C0007047401C490008BF20F00100704710B478
:1009D000B0FA80FC00FA0CF050EA010404BF10BC2D
:1009E000704749B1CCF1200421FA04F411FA0CF15A
:1009F00018BF012121430843A3EB0C01CB1D4FEA93
:100A000000614FEA102042BF002010BC704700EB8D
:100A1000C35010440029A4BF10BC7047401C4900BB
:100A200008BF20F0010010BC704710B5141E73F110
:100A3000000408DA401C41F1000192185B411A439E
:100A400001D120F0010010BD2DE9F04D92469B46EA
:100A500011B1B1FA81F202E0B0FA80F22032904690
:100A6000FFF743FF04460F4640EA0A0041EA0B0144
:100A700053465A46084313D0114653EA010019D091
:100A8000C8F140025046FFF73FFF05460E4650466C
:100A900059464246FFF729FF084305D0012004E0EC
:100AA00020463946BDE8F08D0020054346EAE07651
:100AB0002C4337430A986305E40AA0EB08000022A0
:100AC000FD0A44EA47540A3002D500200146E9E70E
:100AD000010510196941DDE9084500196941BDE8C2
:100AE000F04DA2E72DE9F04D00231A461B1A8A416A
:100AF00003DB00200146BDE8F08DC1F30A52C1F3CB
:100B0000130141F480154FF0000BD10702D10018FA
:100B10006D41521E0027044640F2FF11384601EB9A
:100B2000620A3E468046024600204FF48011FFF7DD
:100B3000EBFEC2197141BB1846EB0100B4EB030C8C
:100B400075EB000C04D3E41A65EB000517460E465E
:100B5000241908F101006D4180463428E3DDF919BC
:100B600046EB0600091BA84103D24FF0FF321346A3
:100B700001E0002213461BEB070046EB0A51BDE8DB
:100B8000F04DFFF752BFC1F30A52C1F3130140F217
:100B9000FF3341F480119A4202DA00200146704787
:100BA00040F233439A42A2F2334202DC5242FFF750
:100BB000ABBEFFF79ABE00000648804706480047D4
:100BC000FEE7FEE7FEE7FEE7FEE7FEE7FEE7FEE7FD
:100BD000FEE7FEE75524000831010008064C074DEA
:100BE00006E0E06840F0010394E8070098471034FD
:100BF000AC42F6D3FFF7A0FA7860000898600008CE
:100C000000487047046000082DE9F05F82460078D4
:100C1000002715468B460AF10104B946302801D059
:100C20009DB113E014F8010B0127782803D0582850
:100C300001D045B10AE00DB1102D07D100271025D4
:100C400014F8010B02E0082500E00A250026B04652
:100C50000EE005FB080005FB06F1012701EB10463D
:100C60001FFA80F8B6F5803F00D3B94614F8010B9F
:100C7000294600F018F80028EBDABBF1000F05D088
:100C80000FB1641E00E05446CBF80040B9F1000FEC
:100C900006D001F0F7FC02210160C81EBDE8F09FFC
:100CA00048EA0640FAE73A2800D2303820F020021D
:100CB000412A01D3A2F13700884201D34FF0FF301F
:100CC000704770B58C1810F8015B15F0070301D15F
:100CD00010F8013B2A1106D110F8012B03E010F89F
:100CE000016B01F8016B5B1EF9D12B0705D40023C2
:100CF000521E0DD401F8013BFAE710F8013BCB1A64
:100D0000921C03E013F8015B01F8015B521EF9D558
:100D1000A142D8D3002070BDA84EA94CA94F90B0D5
:100D20004FF02D0B4FF4814A4FF00009002003F0E3
:100D300073FA002003F098F900210F2003F04BF91B
:100D40003042A060F8D0208940047DD55246002171
:100D50000F2003F004FB0021102003F03CF940B207
:100D6000B0F5806F04DC81B20022964803F067F989
:100D7000B9785846B1FBF0F20BFB121223799A4274
:100D8000D4D1B1FBF0F20BFB12100E90FD788C4920
:100D900087F80290C84687F803900A2243318948B1
:100DA000FFF7FDF980B186490A2285318548FFF7B2
:100DB000F6F921790843B9D1F87A01287DD0B87ABB
:100DC000814904F09DFAB1E703F052FBC4E9040144
:100DD0004FF4FA7003F008FA40F6E44003F01CFA0E
:100DE000774821784F3000228170C57001460F206E
:100DF00003F0E3FA00210F2003F0F0FA022003F0E1
:100E00003DFA00210F2003F0E6F83042A060F8D050
:100E10002089400499D5524600210F2003F09FFA03
:100E20000021102003F0D7F800F07F01182903DC1F
:100E30000022644803F003F987F80280F9784046FD
:100E4000A942C0D1F87000E0ABE05D490A225E31F2
:100E50005C48FFF7A4F90028B5D103F01CFBC4E9F6
:100E6000060103F005FBC4E9080156480CA90A3045
:100E700003F0DAFA53480DA90E3003F0D5FA5148C1
:100E800007A9123003F0D0FA21690891D4F818802C
:100E9000216A02910D980C990190401AFFF70FFCFE
:100EA000CDE905100299A1EB0800FFF708FCCDE998
:100EB000031007990198081A00E078E0FFF7FFFB9C
:100EC000CDE901100899A8EB0100FFF7F8FB0891A4
:100ED0000090DDE90510DDE90332FFF732FADDE9C4
:100EE0000132FFF72EFA089B009AFFF72AFACDE9A4
:100EF0000910DDE90110089B009AFFF7C9FA01917A
:100F00008046DDE90510DDE90332FFF7C1FA42460C
:100F1000019BFFF7B7FADDE90932FFF72BFBFFF77B
:100F200027FCFFF7D9FB294A294BFFF7B1FA4FF00D
:100F30009852284BC4E90A01FFF7AAFAC4E90C0148
:100F4000FFF766FC1E4B014638335A78187802F0DA
:100F500057FFD4E90C23FFF798FA00221E4BC4E98F
:100F60000C01FFF795FAFFF7E4FB642290FBF2F324
:100F7000134976318B7290FBF2F302FB1300C872B7
:100F80000E98087320788870CD7000220F2003F02F
:100F900014FA00210F2003F021FA002003F06EF96B
:100FA000C4E60E4A00210F2003F0D9F9BEE6054839
:100FB000FD70397B0D3001F033FBB7E600D02724FC
:100FC00030030020A40C002018040020FA48CE3B77
:100FD0001835B13D19DDB14100005940009027247A
:100FE00010B5022807D102F0A9FB4FF0FF3420B161
:100FF00002F0BEFA08B1012010BD204610BD00006D
:101000007CB5274D022805D00024032807D00128ED
:101010002DD042E04220ADF80000012220E021A1C5
:101020001068FFF7C9F8FFF7E9F880B200944FF0B5
:10103000FF360194012801D020B116E00120ADF85F
:10104000000001E0ADF8004016A10020FFF7B4F861
:10105000FFF7D4F880B2FF2807D8ADF802000222CB
:101060006946284600F006FA17E030467CBD009439
:10107000032269462846019400F0D0F9BDF800101B
:1010800009A001F0DBFABDF802100AA001F0D6FABF
:10109000BDF804100AA001F0D1FA01207CBD0000C7
:1010A000000001082C00000062756666303A256475
:1010B0000D0A000062756666313A25640D0A00006B
:1010C00062756666323A25640D0A00000120704799
:1010D0001CB5022809D106490322D1E90201CDE954
:1010E00000016946034800F0C5F901201CBD00005D
:1010F000485500080000010810B5022801D0012061
:1011000010BD06A001F09AFA06480168064A01F4EB
:10111000E06111430160BFF34F8FFEE70D0A4F4BB3
:101120000D0A00000CED00E00400FA0538B50228B5
:1011300018D100246846009400F082FF0098FFF761
:101140003CFB02460B4608A001F078FA6846009482
:1011500000F01AFF0098FFF730FB02460B4604A090
:1011600001F06CFA012038BD543A25660D0A0000E2
:10117000483A25660D0A000008B502280CD1002067
:101180000090684602F048FB0098FFF716FB024605
:101190000B4602A001F052FA012008BD616E676C97
:1011A000653A25660D0A000010B502280DD0032807
:1011B0000BD108A11068FEF7FFFFFFF71FF880B200
:1011C000411F2D2903D804490860012010BD4FF0AC
:1011D000FF3010BD2C0000001000002010B50228C8
:1011E00010D003280ED108A11068FEF7E5FFFFF725
:1011F00005F880B20549012803D010B14FF0FF3047
:1012000010BD0870012010BD2C000000C40000209B
:1012100010B5022806D0032804D0012802D102A06C
:1012200001F00CFA012010BD4149542D42553031D6
:101230002D444220563130302054323032302D355A
:101240002D31370D0A000000064B0020014603F146
:10125000B40200BF43F8201042F82010401C2D2893
:10126000F8DB7047F0080020FEE7704710B5022059
:1012700000F038F8002820D000F03BFA0F4C21682D
:10128000401A322814D372B6002002F037FF02F061
:101290007DFD4FF0FF3200210F2003F060F84FF486
:1012A0000051074800F021FA62B600F022FA2060EF
:1012B000BDE81040022000F005B810BD000000207D
:1012C000001001400149086070470000140401400B
:1012D0000349024600200968114200D001207047EE
:1012E00000040140064A014600201268044B0A40EF
:1012F00014331B680B4202D0002A00D00120704733
:101300000004014030B51A498379026853B30B6871
:1013100093430B600A1D13680468A34313600279AA
:101320000A441368046823431360114A083213689F
:101330000468A3431360131D1C680568AC431C605C
:101340004479102C05D021440A68006802430A60E1
:1013500030BD1168046821431160196800680143B9
:10136000196030BD0079084401689143016030BDC7
:101370000004014070B505464FF43026304600F0B9
:1013800067F8042811D1094C206940F0020020615F
:101390006561206940F040002061304600F058F857
:1013A000216941F6FD721140216170BD00200240AB
:1013B00008490420CA68D20701D001207047CA68D2
:1013C000520701D502207047C968C906FBD5032022
:1013D00070470000002002400248016941F080018E
:1013E0000161704700200240F0B506464FF40057F7
:1013F0000D46384600F02CF804280CD1064C206924
:1014000040F0010020613580384600F021F8216964
:10141000BA1E11402161F0BD0020024010B500232A
:1014200006E000BF30F8134021F813405B1C9BB26C
:101430009342F7D310BD00000348024941600349BD
:10144000416070472301674500200240AB89EFCD22
:1014500000B50346FFF7ACFF03E000BFFFF7A8FFAE
:101460005B1E012803D0002B00D1052000BD002BFE
:10147000F4D1FAE72DE9F0414FF0006516460F462A
:101480000446A8421ED3104904EB4600884219D2F4
:10149000FFF7D2FFA4F10060C00A05EBC020FFF700
:1014A00069FF002508E000BF37F8151004EB450080
:1014B000FFF79AFF6D1CADB2B542F5D3BDE8F04120
:1014C000FFF78ABFBDE8F08100000808F8B50121E8
:1014D0007D2000F0B7FC4FF6FF70ADF80000002053
:1014E000304D8DF803006946284600F079F82E4FFC
:1014F0006946384600F074F82C4E6946304600F0D4
:101500006FF869462A4800F06BF86946294800F0F0
:1015100067F80424ADF800408DF80340694638466A
:1015200000F05EF849F68150ADF800008DF80340F8
:101530006946304600F054F84FF4EC50ADF8000026
:101540008DF803406946304600F04AF86003ADF874
:1015500000008DF803406946284600F041F80E204F
:10156000ADF8000010248DF8034003278DF80270B9
:101570006946284600F034F842F20800ADF8000051
:101580008DF803408DF802706946304600F028F867
:101590000021012000F076F86102304600F0A7F843
:1015A0000020F8BD00080140000C0140001001407F
:1015B000001401400018014010B58A0721F003040F
:1015C0000649130F21440F228C689A4094438C6083
:1015D0008A68984002438A6010BD00000000014004
:1015E000F0B5CA78002502F00F03D20601D58A783B
:1015F00013430A784FF00F0E12F0FF0F4FF0010265
:101600001CD004680F8802FA05F63740B74211D1A2
:101610004FEA850C0EFA0CF724EA070703FA0CF4DC
:101620003C43CF78282F02D0482F02D002E04661F9
:1016300000E006616D1C082DE4D304600C88FF2CCB
:101640001ED944685FF0000606F1080702FA07F5A4
:101650000F882F40AF420FD14FEA860C0EFA0CF7DD
:10166000BC4303FA0CF73C43CF78282F00D14561E7
:10167000CF78482F00D10561761C082EE4D3446052
:10168000F0BD0000F0B5144C002801DAE36900E079
:101690006368420D120185B2C0F301579540C0F353
:1016A0000346032F05D0C2020AD50322B24093435A
:1016B00007E023F07062636823F07063636002E008
:1016C000AB4343F0706201B12A43002801DAE261C2
:1016D000F0BD6260F0BD0000000001400246002045
:1016E00092680A4200D00120704741617047016151
:1016F000704703F013B9000001A000F09FFFFEE760
:10170000486172644661756C745F48616E646C65B3
:1017100072200D0A000000000029018802D041F467
:10172000806101E021F48061018070470246002061
:10173000938A128B43EA024323F07F42914300D104
:10174000012070470029018802D041F0010101E029
:1017500021F0010101807047094910B588424FF01E
:10176000010101D14C0501E04FF48004204600F056
:101770005DFB2046BDE81040002100F057BB000093
:10178000005400400029018802D041F4807101E03A
:1017900021F48071018070470029018802D041F452
:1017A000007101E021F40071018070470CB5024620
:1017B000002000920A0F21F07F41019202D0009A8E
:1017C000143202E0009A090C1832009212680A42A0
:1017D00000D001200CBD000070B50446808886B0A2
:1017E0000D4620F03F06684600F044FB274902986A
:1017F000B0FBF1F189B20E43A680228822F00102EB
:101800002280234B2A689A421CD85200B0FBF2F087
:1018100080B2042800D20420491C2184A08320889F
:1018200040F00100208021884FF6F5300140A88863
:101830006A89104308432080A889298908432081A8
:1018400006B070BDEB88A3F53F46FF3E0BD002EB20
:10185000C20303EB0212B0FBF2F080B240F480400E
:10186000020506D007E002EB4202B0FBF2F080B2C4
:10187000F6E740F001004FF4967251434FF47A724C
:10188000B1FBF2F140F40040C6E7000040420F0017
:10189000A0860100B1F5006F018803D021F400613A
:1018A0000180704741F40061FAE7008AC0B27047D6
:1018B00012B141F0010101E001F0FE010182704727
:1018C000018270472DE9F04788461D46164681463D
:1018D0000121FFF757FF294F642439464846FFF797
:1018E00025FF10B9641EA4B2F7D200224146484633
:1018F000FFF7DEFF14B9224900200860214F64245D
:1019000039464846FFF712FF10B9641EA4B2F7D259
:1019100031464846FFF7D4FF1A4E6424B61C3146C0
:101920004846FFF703FF10B9641EA4B2F7D2294658
:101930004846FFF7C5FF642431464846FFF7F6FEE8
:1019400010B9641EA4B2F7D201214846FFF724FF64
:101950000D4D642429464846FFF728FF10B1641E48
:10196000A4B2F7D200214846FFF7D6FE4F20401E12
:1019700080B2FCD20020BDE8F08700000100030027
:1019800068010020820007001000001038B5012116
:10199000480500F03FFA0121092000F053FAC02069
:1019A000ADF8000003208DF802001C208DF8030024
:1019B00069461148FFF714FE104C2046FFF7CCFE95
:1019C0000F49002088804BF6FF70C88030200881C6
:1019D00020154881000188810A48086001212046BD
:1019E000FFF7B0FE06492046FFF7F6FE012120462C
:1019F000FFF792FE38BD0000000C0140005400408B
:101A0000580C0020801A0600FEE7704770B50F23BF
:101A1000C47801780122F4B1144C2468457804F4A8
:101A2000E064C4F5E064240AC4F10406E340847869
:101A3000B5401C402C4301F1E021230181F8003422
:101A4000007800F01F018A404009800000F1E0208A
:101A5000C0F8002170BD01F01F00824048098000DD
:101A600000F1E020C0F8802170BD00000CED00E026
:101A70000249084302490860704700000000FA0567
:101A80000CED00E00907090E002806DA00F00F004F
:101A900000F1E02080F8141D704700F1E02080F88C
:101AA0000014704770B5002404F1B000C0B20021EA
:101AB00000F0F6F80021084600F0F2F800211020AE
:101AC00000F0EEF800250121002000F0E9F86D1C7F
:101AD000EDB2802DF7D3641CE4B2082CE4D370BDC2
:101AE00010B50021AE2000F0DBF80021084600F020
:101AF000D7F80021102000F0D3F80021402000F09A
:101B0000CFF80021812000F0CBF80021CF2000F099
:101B1000C7F80021A12000F0C3F80021C82000F080
:101B2000BFF80021A62000F0BBF80021A82000F09B
:101B3000B7F800213F2000F0B3F80021D32000F0D7
:101B4000AFF80021084600F0ABF80021D52000F0E6
:101B5000A7F80021802000F0A3F80021D92000F090
:101B60009FF80021F12000F09BF80021DA2000F01E
:101B700097F80021122000F093F80021DB2000F0FC
:101B80008FF80021402000F08BF80021202000F089
:101B900087F80021022000F083F800218D2000F05A
:101BA0007FF80021142000F07BF80021A42000F031
:101BB00077F80021A62000F073F80021AF2000F094
:101BC0006FF80021AF2000F06BF8FFF76BFF0021EA
:101BD000BDE810400846AFF3008010B50446B031B0
:101BE000C8B2002100F05CF8102040EA1410002177
:101BF00000F056F804F00F00BDE8104040F001007E
:101C0000002100F04DB800002DE9F041203A0024F9
:101C10000D468046D7B27F2803D900208D1C804610
:101C2000EDB22946FFF7D9FF0F4E00BF04EB0710B6
:101C30000121305C00F034F8641CE4B2082CF5D3C8
:101C40006D1CE9B24046FFF7C8FF002404EB071003
:101C500030440121007A00F023F8641CE4B2082C1F
:101C6000F4D3BDE8F0810000F85500082DE9F041FB
:101C700017460E46044600250CE031462046FFF785
:101C8000C3FF0834E4B2782C02D90024B61CF6B2A3
:101C90006D1CEDB27A5D002AEFD1BDE8F081000045
:101CA000084A30B41268012A0AD1074C034609B128
:101CB000402200E00022204630BC7821FFF702BE1F
:101CC00030BC704768010020005400402DE9F0410D
:101CD0000E46074615461C46002102F0EDF9314636
:101CE000384602F0FAF92146284602F0E5F9204686
:101CF00002F07CF8C0B2012825D10021384602F05C
:101D0000ECF9204602F072F810F0FF0F1BD1002111
:101D1000284602F0D1F92146284602F0DEF9314684
:101D2000384602F0C9F9304602F060F8C0B2012826
:101D300009D10021284602F0D0F9304602F056F8C9
:101D400010F0FF0F02D00020BDE8F0810120FBE77A
:101D50002DE9F84F4FF01008ADF800100F468DF840
:101D6000038003241D46924683468DF8024069464F
:101D7000FFF736FC39465846FFF7B9FC00260096B7
:101D8000ADF800504FF048098DF803908DF80240EF
:101D900069465046FFF724FC29465046FFF79EFC53
:101DA000012831D139465846FFF79FFC2946504655
:101DB000FFF794FC40BB0096ADF800508DF803800F
:101DC0008DF8024069465046FFF70AFC2946504606
:101DD000FFF78DFC0096ADF800708DF803908DF83C
:101DE000024069465846FFF7FBFB39465846FFF765
:101DF00075FC012808D129465046FFF776FC394684
:101E00005846FFF76BFC10B10020BDE8F88F0120A9
:101E1000FBE77047044A0029D16901D0014300E083
:101E20008143D1617047000000100240044A00293C
:101E3000116901D0014300E0814311617047000046
:101E400000100240044A0029916901D0014300E0DA
:101E5000814391617047000000100240044A00294C
:101E6000D16801D0014300E08143D1607047000098
:101E70000010024030B5224A5168224B11F00C018B
:101E800003D0042903D0082903D0036016E01E49BB
:101E900013E05168536801F470114FF0020413F419
:101EA000803F04EB914104D053689B0303D5154B4D
:101EB00002E0164B00E0144B5943016051680F23B8
:101EC00003EA1111124B5C5C0168E1404160546807
:101ED000072505EA14241C5D21FA04F48460546883
:101EE00005EAD4241B5DD940C1605268032303EA8C
:101EF0009232074B1B1F9A5CB1FBF2F1016130BDBE
:101F00000010024000127A000024F40000093D0095
:101F1000A00000207CB5002000908DF80400FE2079
:101F2000184C8DF8000001236A468021204602F0FB
:101F30006DFB42F22831491E89B2FCD2E7258DF8AB
:101F4000005001236A468021204602F05FFB0123F6
:101F500001AA8021204602F0B1FA0223E622802164
:101F60002046FFF7AFFC8DF8005001236A46802120
:101F7000204602F04BFB012301AA8021204602F0FB
:101F80009DFA7CBD005400402DE9FC41064600202E
:101F9000019005460090F5201E4F8DF804000123A6
:101FA00001AA8021384602F031FB4FF6FD7420462D
:101FB000401E80B2FCD203236A468021384602F0DC
:101FC0007DFA60B1142D07D913A1002000F036FB73
:101FD0004FF0FF30BDE8FC816D1CEDB2E7E79DF8E6
:101FE000010020F003008DF80100BDF8000040BAA8
:101FF000FEF74FFBFEF7E1FB0E4A0F4BFEF748FAE8
:1020000000220E4BFEF73EFAFEF702FC3060002085
:10201000E0E700000054004053485432305F7265DE
:1020200061645F74656D2074696D65206F757420DF
:10203000303300007644CF7701405F3F0000184006
:102040002DE9FC4106460020019005460090F32052
:102050001D4F8DF80400012301AA8021384602F0AB
:10206000D5FA4FF6FD742046401E80B2FCD2032301
:102070006A468021384602F021FA58B1142D06D95B
:1020800012A000F0DBFA4FF0FF30BDE8FC816D1CC0
:10209000EDB2E8E79DF8010020F003008DF80100A3
:1020A000BDF8000040BAFEF7F4FAFEF786FB0E4AD0
:1020B0000E4BFEF7EDF90E4A0E4BFEF7E3F9FEF775
:1020C000A7FB30600020E0E7005400405348543242
:1020D000305F726561645F74656D2074696D652041
:1020E0006F75742030330000619FC6DE07F7653FCF
:1020F000CDCCCCCCCC6C4740034A118821F03801C0
:102100000143118070470000003001400029018820
:1021100002D041F0400101E021F040010180704710
:10212000F0B5294E87B0304600F052F80021ADF8E6
:1021300000104FF48270ADF80200ADF80810701571
:10214000ADF80A001024ADF80410ADF80C400720DB
:10215000ADF80610ADF80E10ADF810006946304627
:1021600000F067F8A020ADF8140018208DF81700D3
:10217000164F03258DF8165005A93846FFF730FA9B
:102180004020ADF8140048208DF8170005A9384606
:10219000FFF726FAADF814408DF817408DF8165069
:1021A00005A93846FFF71CFA0021304600F05DF81B
:1021B00001213046FFF7AAFF10213846FFF797FAB2
:1021C00007B00020F0BD00000030014000080140D1
:1021D000114910B588420AD1841401212046FFF725
:1021E0003DFE2046BDE810400021FFF737BE0B49F9
:1021F000884202D10121041404E0094988420AD12D
:102200000121C4132046FFF711FE2046BDE810400F
:102210000021FFF70BBE10BD003001400038004028
:10222000003C00400246002012890A4200D00120F2
:10223000704730B502884C8802F441530A88CD8833
:1022400022438C882C4322430C8922434C8922430D
:102250008C892243CC8922431A430280828B22F448
:1022600000628283098A018230BD0029818802D000
:1022700041F0040101E021F0040181807047000079
:102280007CB50E46044630492F48083150F82400EA
:1022900051F82410084340F001000121FFF7D2FD5E
:1022A00029480838F4B350F824000121FFF7B2FDA3
:1022B00018208DF8030024486946203830F81400AF
:1022C000ADF8000003208DF80200204850F82400EB
:1022D000FFF786F904208DF803001B4869461C3877
:1022E00030F81400ADF800001848083050F8240009
:1022F000FFF776F9154D3146083D55F8240000F0FA
:1023000031F94FF44070FFF7B3FB25208DF804003E
:1023100037208DF8060001208DF8070001A8FFF78F
:1023200075FB00E00BE0012240F22551084800F067
:1023300000F955F82400012100F0CBF87CBD0068BD
:102340000121FFF77FFDB3E768550008D4000020A6
:1023500000380140704700000CB50021264801916B
:102360000091026842F4803202604FF4A063026878
:1023700002F400320092019A521C0192009A12B9A2
:10238000019A9A42F3D10268920333D50121009158
:102390001A490A6842F010020A600A6822F0030231
:1023A0000A600A6842F002020A60416841604168BE
:1023B0004160416841F480614160416821F47C11D1
:1023C0004160416841F4F8114160016841F0807159
:1023D000016001688901FCD5416821F00301416079
:1023E000416841F0020141604168C1F38101022965
:1023F000FAD10CBD00910CBD00100240002002403B
:1024000070B50F484FF47A710068B0FBF1F0B0F18D
:10241000807F14D220F07F404FF0E024401E6061A6
:1024200065170F212846FFF72DFB0020A06107202C
:10243000206105212846FFF725FB002070BDFEE73F
:10244000B000002002484168491C4160704700000C
:10245000000000200F4810B5016841F00101016043
:1024600041680D4A1140416001680C4A1140016009
:10247000016821F480210160416821F4FE0141607E
:102480004FF41F018160FFF767FF05494FF00060BF
:10249000086010BD001002400000FFF8FFFFF6FECC
:1024A00008ED00E010B5084C40F22551204600F040
:1024B00021F8002807D0204600F0AAF8BDE8104017
:1024C000C0B201F01FB810BD00380140C9430180FF
:1024D00070470029818902D041F4005101E021F4C4
:1024E0000051818170470246002012880A4200D0C4
:1024F0000120704730B501F01F0201240025C1F30F
:10250000421304FA02F2012B0FD0022B0FD0838A60
:102510004FEA11210088134204FA01F400EA040092
:1025200001D000B10125284630BD8389F0E7038A38
:10253000EEE710B5C1F3421301F01F040121A140E1
:10254000012B07D0022B07D01430002A026805D0D7
:102550000A4304E00C30F8E71030F6E78A430260E3
:1025600010BD000030B50446008A85B00D464CF61B
:10257000FF710840E98801432182A1894EF6F310DA
:102580000140A8882A8910436A890A431043A08120
:10259000A08A4FF6FF410840A9890143A1826846FD
:1025A000FFF768FC1948844201D1039800E00298C3
:1025B000A189090400EBC00101EB0010296801D5D5
:1025C000490000E08900B0FBF1F06422B0FBF2F1B9
:1025D00009010B096FF018056B4300EB8300A38919
:1025E0001D044FF0320306D503EBC000B0FBF2F040
:1025F00000F0070005E003EB0010B0FBF2F000F084
:102600000F000843208105B030BD000000380140B4
:102610008088C0F308007047C1F3080181807047CB
:1026200070B50D460646002403E0305D02F06AFEF8
:10263000641CAC42F9DB70BDFEE700000FB4054B33
:1026400010B503A9044A029800F026FA10BC5DF800
:1026500014FB00004544000818040020490050EA1B
:10266000C12018BF04204A0D18BF40F0010040F2FD
:10267000FF72B2EB515F08BF40F00200012808BFB3
:102680000520704700487047200400202DE9F041E4
:102690004F1E00EBC7010446D1E9000115461E4656
:1026A00037F006020DD02A463346FDF7F1FE7F1EB5
:1026B00004EBC703D3E90023FDF743FE37F006021E
:1026C000F1D1022F25D0042F13D0062F18BFBDE85B
:1026D000F0812A463346FDF7DBFED4E90A23FDF7F5
:1026E00030FE2A463346FDF7D3FED4E90823FDF732
:1026F00028FE2A463346FDF7CBFED4E90623FDF734
:1027000020FE2A463346FDF7C3FED4E90423FDF735
:1027100018FE2A463346FDF7BBFED4E90223FDF737
:1027200010FE2A463346FDF7B3FED4E90023BDE888
:10273000F041FDF706BE0000002213461046014995
:10274000FDF718BF0000F03F0122FDF782BFFDF743
:10275000F8BD0022134610461146FDF70BBF40F2AC
:10276000013200204FF0E041FDF773BF024A002024
:102770001107FDF76EBF000001FDFFFF02E008C872
:10278000121F08C1002AFAD170477047002001E0EB
:1027900001C1121F002AFBD17047000001490860E7
:1027A000704700002004002038B504466D208DF8E5
:1027B00000006B46012240F606012E2001F0DEFDEE
:1027C00041F6060114B140F2076201E041F20762EE
:1027D0002E2001F0B7FD38BD38B504466B46022205
:1027E0000021362001F00EFC0E2C2CD2DFE804F084
:1027F0000F07152B2B2B2B1D392B2B44494E00205B
:102800008DF800009DF8010000F0FE0019E09DF831
:10281000000000F0FC00401C04E09DF8000000F007
:10282000FC00801C8DF800000DE09DF8000000F019
:10283000B30040F048008DF800009DF8010040F022
:1028400080008DF801006B4601220021362001F046
:1028500095FD0122114636200DF1010301F08EFD98
:1028600038BD9DF8000000F0B3008DF800009DF821
:10287000010000F07F00E4E79DF8010040F0020055
:10288000DFE79DF8010000F0FD00DAE79DF80000A9
:1028900000F0CF0040F02000C4E708B503208DF819
:1028A000010001208DF800006B4602220021362035
:1028B00001F064FD4FF4004206212D2001F042FD9D
:1028C000012000F087FF0120FFF786FF08BD08B553
:1028D000010A8DF801108DF800006B4602220421D8
:1028E0002D2001F04BFD03208DF800006B460122E6
:1028F00006212D2001F042FD00208DF800006B46DE
:10290000012206212D2001F039FD0A212D2001F0A0
:1029100062FB08BD2DE9FF5F82B00021DDE90430D4
:10292000020DDDF840B0034318D044F61050A2F277
:10293000FF3242431514119801281FD0A5EB0B005C
:10294000401C5FEA000A4FF000064E4FDFF8389156
:10295000B046504615D5CAF1000413E01198012481
:102960004AA3012801D16FEA0B010298119AC0E92C
:102970000031C0E9024206B0BDE8F09FCBF1000093
:10298000DFE704460021404A491842EB0450CDE9F4
:10299000001012E0E00707D032463B464046494669
:1029A000FDF776FD8046894632463B46104619467D
:1029B000FDF76EFD06460F466410002CEAD1DDE9F6
:1029C0000401DDE90023BAF1000F06DAFDF760FD2E
:1029D00042464B46FDF75CFD05E0FDF7CBFD424668
:1029E0004B46FDF7C7FD04460E460022284BFDF777
:1029F000F7FE03D84FF0FF30014607E00022254BD9
:102A000020463146FDF79DFCFEF7BDF8102409E095
:102A1000002C0ADB0A220023FDF736FF039B30322D
:102A20001A55641E50EA0102F2D1641C039AC4F1E3
:102A300011031444119A012A03D0012208430DD135
:102A40000AE0084304D000204FF0110B119072E708
:102A5000A3EB0B056D1E0DE05B4504DD4FF000029E
:102A600005F1010504E003DA4FF00002A5F10105CC
:102A7000002AECD002981199C0E90231C0E9004562
:102A800079E70000000014400000F03F3000000033
:102A90000000F0430000E03F2DE9FF4F95B09A465B
:102AA000884606460025EEE1252877D100242746F2
:102AB000F94A0121039400E0044316F8013F203B4A
:102AC00001FA03F01042F7D130782A2811D06FF0C4
:102AD0002F033078A0F13002092A16D8039A44F067
:102AE000020402EB820203EB42021044761C0390C4
:102AF000EFE758F8042B0392002A03DA504244F41B
:102B00000054039044F00204761C30782E2816D12D
:102B100016F8010F44F004042A280DD06FF02F029C
:102B20003078A0F13003092B09D807EB870302EBBB
:102B30004303C718761CF3E758F8047B761C3078FB
:102B40006C280FD006DC4C2817D068280DD06A28D6
:102B500014D104E0742810D07A280FD10DE044F489
:102B600000140AE044F4801401E044F44014727844
:102B7000824202D104F58014761C761C30786628D7
:102B80000BD013DC582877D009DC002875D04528F5
:102B9000F6D04628F4D047281AD193E118E06328EC
:102BA00035D0642879D0652812D18BE1702873D094
:102BB00008DC6728F1D069286FD06E280DD06F2807
:102BC00006D1ACE073282CD0752874D0782853D067
:102BD0005246179990476D1C54E1C4F302500228E5
:102BE00009D003280DD0D8F8001004280DD00D60AE
:102BF00008F1040846E1D8F80010EA17C1E90052CC
:102C0000F6E7D8F800100D80F2E70D70F0E718F83D
:102C1000041B8DF8001000208DF80100EB46012008
:102C200003E058F804BB4FF0FF3061074FF000019C
:102C300002D40DE009F101018946B9420FDA81455C
:102C4000F8DB1BF809100029F4D108E009F10101B3
:102C500089468142FADB1BF809100029F6D1039856
:102C60005346A0EB090721463846179A00F080FA30
:102C7000284400EB090507E044E008E10DE01BF8FB
:102C8000010B524617999047B9F10109F7D2534603
:102C900021463846179AF2E039E00A21C4F302527D
:102CA0004FF0000B0091022A06D058F8040BC11710
:102CB000032A09D00AE023E008F1070020F0070208
:102CC000F2E80201904605E000B2C117042A01D1E2
:102CD00040B2C117002906DA0A460021404261EBE2
:102CE00002012D2202E0220504D52B228DF80420BA
:102CF000012203E0E20701D02022F7E7914657E0E6
:102D00000A2100E010214FF0000B00910BE0102190
:102D10004FF0000B44F004040827009103E0082062
:102D20004FF0000B0090C4F30252022A05D058F86D
:102D3000040B0021032A08D008E008F1070020F066
:102D40000702F2E80201904603E080B2042A00D1B3
:102D5000C0B24FF0000922072AD53278702A07D076
:102D6000DDF800C08CF0100C5CEA0B0C05D00EE016
:102D700040228DF80420012208E050EA010306D029
:102D800030238DF804308DF8052002229146009BF7
:102D900083F0080353EA0B030AD150EA010201D180
:102DA000620705D530228DF804204FF001097F1EFF
:102DB0003278582A04D039A20C920CAA02920BE065
:102DC0003BA2F9E75B46009AFDF75EFD0C9B9B5C1E
:102DD000029A521E0292137050EA0102F2D1029836
:102DE00004A9081A00F1200B600702D524F48034EE
:102DF00000E001275F4502DDA7EB0B0000E00020AB
:102E000000EB0B01009003984944401A0390E00343
:102E100006D453462146179A039800F0A9F90544B1
:102E2000002706E001A85246C05D179990476D1C27
:102E30007F1C4F45F6DBE0030CD553462146179A1D
:102E4000039800F095F9054404E0302052461799A4
:102E500090476D1C0099481E00900029F5DC08E0A1
:102E60000298029952460078491C0291179990479E
:102E70006D1CBBF10001ABF1010BF1DC5BE100F07B
:102E800065F90544761C307800287FF40DAE19B042
:102E90002846BDE8F08F00000928010030313233A8
:102EA0003435363738396162636465660000000086
:102EB0003031323334353637383941424344454670
:102EC00000000000600700D4062708F1070020F08A
:102ED0000700F0E80223804603F0004C5FEA0C0094
:102EE00001D097A009E0200501D596A005E0E007F4
:102EF00001D095A001E0AFF24C001390307823F0A0
:102F0000004365280CD006DC452809D046281DD092
:102F100047287FD13BE0662818D067287AD136E071
:102F20000021112F01DB112000E0781CCDE9000108
:102F300004A90CA8FFF7EEFCDDE90D010C9A4FF097
:102F4000000B07F10109109200914EE04FF0004094
:102F50000097CDE9011004A90CA8FFF7DBFCDDE91F
:102F60000D020C9B0F994FF0000B914610930092AD
:102F700011B9791C00EB0109B7EB090003D4C0F1CA
:102F8000FF3B07F10109A9EB0700019042E0012F87
:102F900000DA01270021112F01DD112000E0384661
:102FA000CDE9000104A90CA8FFF7B4FCDDE90D018F
:102FB0000C9A00914FF0000BB946109221070FD4E4
:102FC000009A4A4503DA914601E0A9F10109B9F1F5
:102FD000010F05DD109AA9F10101515C3029F4D0EF
:102FE000B84202DA10F1040F03DA0121CDE9011031
:102FF00010E0002803DC8344A9EB000102E0411C3F
:10300000494500DD8946A0EB0B00401C01904FF0C4
:1030100000400290200705D40198484502DB4FF09C
:10302000FF30019000208DF84B0002980DF14B0706
:10303000B0F1004F25D002200C902B200D9002986B
:1030400000280CDA404202902D200D9007E00A2162
:103050000298FDF703FC3031029007F8011D0C992E
:10306000481E0C900029F2DC02980028EFD1791E4E
:103070000D980870307800F0200040F0450007F807
:10308000020D11A8C01BC01D02901398007800B15A
:10309000012000EB0901019801EBE0710298014465
:1030A0000398401A401E0390E00306D4534621467D
:1030B000179A039800F05CF805441398007818B14B
:1030C0005246179990476D1CE00323D5534621467D
:1030D000179A039800F04CF805441BE0BBF1000F71
:1030E00007DB0098584504DD1098179910F80B007D
:1030F00001E0179930205246904701980BF1010BDF
:10310000401E05F10105019004D12E205246179969
:1031100090476D1CB9F10001A9F10109DEDC05E061
:1031200017F8010B5246179990476D1C0299481EDB
:1031300002900029F4DC53462146179A03989EE634
:103140002D0000002B000000200000002DE9F041C0
:10315000044600251E461746880404D405E0394677
:103160002020B0476D1C641EF9D52846BDE8F081CB
:103170002DE9F041044600251E469046C80301D5BE
:10318000302700E02027880404D505E04146384672
:10319000B0476D1C641EF9D52846BDE8F0810000DB
:1031A0002DE9F04D8D4F21F0004A86B005460C46C2
:1031B000BA452ADBAAEB070028430AD08848824593
:1031C00001DC1AD1CDB106B02846BDE8F04DFFF7BD
:1031D000BBBA844A844B2846FDF75AF907460E4687
:1031E000824A834B28462146FDF752F906B03A46FB
:1031F0003346BDE8F04DFDF7A4B80120FFF7CEFA45
:1032000006B0BDE8F04DFFF7A4BA7A48824542DA2D
:10321000BAF1795F0BDA2846FFF720FA042808BFD5
:10322000FFF7A4FA284606B02146BDE8F08D2A46ED
:103230000B461046FDF72CF9834602466E480E46B3
:103240000B4606217844FFF721FA5A463346FDF72C
:103250001FF9804669488A465A4633460421784415
:10326000FFF714FA5A463346FDF712F900223B469F
:10327000FDF767F802460B4640465146FDF77AF9DE
:103280002A462346FDF704F906B02A462346BDE840
:10329000F04DFDF756B8284624F0004100223D4687
:1032A0003B46FDF7F2F84FF0FF32FDF7D2F9064644
:1032B000024653480F460B4606217844FFF7E6F9CD
:1032C00032463B46FDF7E4F8CDE900014D48324671
:1032D0003B4604217844FFF7D9F932463B46FDF7D7
:1032E000D7F800222B46FDF72CF883460291304692
:1032F000394602F0A9F8804643480D46504517DC90
:10330000DDE900015A46029BFDF734F942462B469F
:10331000FDF7BEF842462B46FDF713F80122FDF7F4
:1033200098F9304A304BFDF7ADF8304A304B4CE05D
:103330004FF0000A52460B464046FDF702F8CDE931
:10334000031052462B4610461946FDF7A1F83246A7
:103350003B46FDF79AF8DDE90332FDF70BF9064627
:103360000F46DDE900015A46029BFDF703F983464B
:103370000091012230463946FDF76BF9194A1A4B84
:10338000FDF783F806460F46012240462946FDF721
:1033900060F95A46009BFDF77BF832463B46FDF745
:1033A00071F806460F46012250462946FDF751F9AD
:1033B0000E4DDFF858802A464346FDF766F8324640
:1033C0003B46FDF762F82A464346FDF75EF8002CBF
:1033D000D8BF81F0004106B0BDE8F08D0000F03F9D
:1033E0000000F07F075C143326A6913C182D44544E
:1033F000FB21F93F0000E03F582C00006E2C00003C
:10340000E22B0000F82B00003333EF3FFB21E93FB4
:103410002DE9F047ADF57C7D8A4681464FF0FF35BA
:103420004FF0FA0800244FF47A7101A8FCF793FEDC
:103430002DA14846FCF79AFEB0B32C4E484656F8EC
:103440003410FCF793FE070011D056F83400FCF757
:103450009FFE3844A0EB09018AB20A2C41D20178C0
:103460003F2908D00D2914D03D291ED039E0641C15
:103470000A2CE3D335E041780D2932D180780A282F
:103480002FD106EBC400436873B101AA4146012065
:103490001BE040780A2824D106EBC40043681BB126
:1034A00001AA4146022010E01BE0AAEB020101AB99
:1034B0002C22401CCDF8008001F0ECFF014606EB09
:1034C000C40043686BB101AA032098470546401C1D
:1034D00007D007A0FFF7B2F80DF57C7D2846BDE8C0
:1034E000F08705A0F6E70000415400001401002019
:1034F0000D0A4F4B0D0A00000D0A4552524F520D56
:103500000A0000002DE9F04106464FF0FF3701F0B8
:1035100005FA154C00256168401AC82803D8608850
:10352000B0F5007F01D36580657001F0F7F9606048
:103530000E4960880E54401C81B261800A2E02D070
:103540000D2E0DD008E06078012805D10748FFF75F
:103550005FFF65700746658065703846BDE8F0819D
:1035600001206070F9E70000C4000020580A002024
:1035700070B501210820FEF765FC01210846FEF721
:1035800061FC01213048FEF77DF8304C4FF40073A8
:103590005D10204622462946FEF7DAFB10F0FF0FA9
:1035A00042D02BA0FFF74AF8EE0129462D4D3346B5
:1035B00022462846FEF7CCFB10F0FF0F36D02AA09B
:1035C000FFF73CF8E314204622460221FEF7C0FB39
:1035D00010F0FF0F2CD029A0FFF730F8231522465A
:1035E00008212846FEF7B4FB10F0FF0F22D028A0D8
:1035F000FFF724F82023204622460821FEF7A8FBE7
:1036000010F0FF0F18D027A0FFF718F8102322465C
:1036100031462846FEF79CFB10F0FF0F0ED026A087
:10362000FFF70CF8012070BD28A008E02BA006E0F1
:103630002FA004E033A002E037A000E03AA0FEF79C
:10364000FDFF002070BD000000023000000C0140B2
:103650005042382D50423920737563636573730D82
:103660000A000000000801405041382D5042313519
:1036700020737563636573730D0A00005042312D2A
:103680005042313120737563636573730D0A000016
:103690005041332D5042313020737563636573732D
:1036A0000D0A00005042332D50423520737563637C
:1036B0006573730D0A000000504131352D504234BE
:1036C00020737563636573730D0A000020504238E0
:1036D0002D504239206661696C0D0A002050413836
:1036E0002D50423135206661696C0D0A00000000E2
:1036F000205042312D50423131206661696C0D0AF3
:1037000000000000205041332D50423130206661CE
:10371000696C0D0A00000000205042332D504235E4
:10372000206661696C0D0A0020504131352D5042F0
:1037300034206661696C0D0A0000000010B500F0CD
:10374000E3FA00F0EEFA4FF480631A0191110801D8
:10375000FEF7BCFA10F0FF0F11D00CA0FEF76EFFC1
:103760004FF400631A0191110801FEF7AFFA10F04F
:10377000FF0F06D0BDE8104009A0FEF75FBF0DA007
:1037800000E010A0FEF75AFF002010BD494F203482
:103790002D3620737563636573730D0A0000000096
:1037A000494F20352D3720737563636573730D0A98
:1037B00000000000494F20342D36206661696C0DF1
:1037C0000A000000494F20352D37206661696C0DD5
:1037D0000A00000010B5044601F0A0F804EB000454
:1037E00001F09CF8001B0028FADD10BD002805D070
:1037F0004FF0E0214FF40000C1F80001704710B510
:103800001720FDF765FD002805D04FF0E0224FF4AA
:103810000001C2F8801110BD2DE9FC5F8246002036
:10382000009004466D46019004F128002919C0B2A9
:1038300000F0B2F8641CE4B2062CF5D3BDF9000028
:103840000011FCF71DFF0646BDF902000011FCF750
:1038500017FF0446BDF904000011FCF711FF0546EF
:103860003046FCF7AAFF02460B463EA0FEF7E6FEF6
:103870002046FCF7A2FF02460B463DA0FEF7DEFE07
:103880002846FCF79AFF02460B463CA0FEF7D6FE00
:103890003046FCF735FF002800DA4042FCF7F0FE26
:1038A00083462046FCF72CFF002800DA4042FCF754
:1038B000E7FE04462846FCF723FF002800DA4042D2
:1038C000FCF7DEFE8146FCF778FF4FF080480022CF
:1038D000434601F029F805460E462046FCF76DFFE9
:1038E0000022434601F020F807460C465846FCF7F4
:1038F00064FF0022434601F017F83A462346FCF7DE
:1039000020FD2A463346FCF71CFD01F09DFDFCF727
:103910007FFF044601464846FCF796FF00D2A146C9
:1039200021464846FCF7CFFCFCF747FFFFF738FC81
:103930000122FCF78EFE144A144BFCF71BFE0022FA
:10394000134BFCF7A5FDFCF763FF01461148FCF79C
:10395000B4FC10F1FF4F00D30020CAF80000002093
:10396000BDE8FC9F6163635F783A25660D0A00003D
:103970006163635F793A25660D0A00006163635FE6
:103980007A3A25660D0A00001F85EB51B81E0940E2
:10399000008056400000B4422DE9F047384E0F46F3
:1039A000814632254FF4003421463046FDF7FEFEB5
:1039B0000028F9D101213046FDF7E4FE314C3046B4
:1039C0002146FDF7F3FE0028F9D0002229463046B3
:1039D000FDF76EFFDFF8B08030464146FDF7A6FEEA
:1039E0000028F9D049463046FDF76AFFDFF8988095
:1039F00008F1020841463046FDF798FE0028F9D04C
:103A000001213046FDF7BEFE21463046FDF7CEFED1
:103A10000028F9D0012229463046FDF749FF1B4C0A
:103A200030462146FDF782FE0028F9D0174C3E347F
:103A300021463046FDF77AFE0028F9D03046FDF7E2
:103A400034FF04464FF2FF713046FDF723FF00219B
:103A50003046FDF761FE01213046FDF79DFE094D20
:103A60000F3529463046FDF7A1FE0028F9D1002187
:103A70003046FDF751FE3C700020BDE8F0870000A5
:103A80000054004001000010820007000200030003
:103A900010B50B46024632210248FDF713FF002005
:103AA00010BD00000054004010B537212020FFF762
:103AB000EFFF03212120FFF7EBFFC0212220FFF7BA
:103AC000E7FF88212320FFF7E3FF7F213020FFF766
:103AD000DFFF02213220FFF7DBFF03213320FFF756
:103AE000D7FF5F21BDE810402020FFF7D1BF0000C5
:103AF0002DE9F84F04460578407978494FF00009E0
:103B0000C84631F8107061787548491ECEB201631D
:103B1000042D75D0072D73D000218A4621780173BA
:103B20006F49E2798969002A6CD021F480018161B2
:103B3000217A4173217A4FF44033826903EA0141CB
:103B40000A43834682610021042000F008FC3A46C3
:103B500042F604012E2000F0F5FB3046FEF724FE6D
:103B6000604F61490522785D00EB80004318072112
:103B70002B2000F003FC5D49012201EB0A030B211D
:103B8000282000F0FBFB785D594951F820200C21DA
:103B9000282000F0E4FBE079564901EB8000A17990
:103BA00030F811200221272000F0CCFB52480421DC
:103BB00030F81620272000F0C5FBE07938B3A07854
:103BC00004282AD028208DF8000020220621272052
:103BD00000F0B8FB6B4601222621272000F0CEFB27
:103BE0004648E17800EB061050F8212008212720F4
:103BF00000F0B5FBB4F80900A0B117E000E001E067
:103C000001218AE741F48001FF08816190E7642285
:103C10000621272000F096FBE2E710208DF8000037
:103C20000246D3E741F24100A4F80900B4F80920A4
:103C30002021272000F086FB314F0C2123203A68F9
:103C400000F08DFB07EB460004218288232000F062
:103C500079FBA07958B1E0792A4901224318002163
:103C6000212000F08BFB4FF003094FF0010805F015
:103C70000F00290740EA116061784FF4402202EA00
:103C800081410843920002EA095108434FF400328F
:103C900002EA4841084321794FF0F86202EA815173
:103CA0000843617940EAC16200211F2000F057FB00
:103CB000A07861784FF4004308430204CBF8102049
:103CC000E179082043EA41310A430021CBF8102072
:103CD00000F045FB0020BDE8F88F0000645C0008A0
:103CE000680C0020E85B0008085C0008265C0008FF
:103CF000F05B0008345C0008405C0008445C00088D
:103D0000285C0008305C000810B50021362000F067
:103D100062F940F440320021BDE81040362000F046
:103D20001EBB08B56B4604220021262000F06AF96C
:103D30009DF800008DF800009DF801008DF801004D
:103D40009DF802006B4620F0300040F010008DF826
:103D500002009DF803008DF80300042200212620B4
:103D600000F00CFB08BD10B504460421362000F01D
:103D700032F914B140F4006201E020F40062042141
:103D8000BDE81040362000F0EABA000038B5402007
:103D90008DF8000000210E2000F01DF90446FFF709
:103DA0002EFD0546002211460E2000F0D8FA6B4683
:103DB000012200210D2000F0E1FA0A4A00210F2023
:103DC00000F0CDFA00F0A4FA224600210E2000F007
:103DD000C6FA2846FFF70AFD0349002081F82C00A7
:103DE00038BD0000F8FF2724680C002010B50446F9
:103DF0002821262000F0EFF8204000D0012010BD3F
:103E000070B50546164600240846FCF7D6FC02228B
:103E1000FCF71FFCFCF78DFCFF2800DDFF202A4982
:103E2000012EA1F108020CD0042D2DD0072D2BD08E
:103E3000515D01EB810202EBC101244A02EB410119
:103E400033E0042D0AD0072D08D0515D01EB81022B
:103E500002EB41111C4A083211440FE0495D1B4A34
:103E600001EB0111883A02EB810100E0641C0A5D5C
:103E70008242FBDBA4F11C001CE0641C0A5D824250
:103E8000FBDBA4F1170015E0495D01EB8102C2EBF9
:103E900081110E4A6832114400E0641C0A5D8242BE
:103EA000FBDBA4F11E0005E0641C0A5D8242FBDB23
:103EB000A4F11100FCF7E4FBFCF77FFCBDE87040C7
:103EC000034A044BFCF7E4BA9E5C0008C25D00089C
:103ED0007B14AE47E17A843F7CB50546324C042022
:103EE0008DF8000000216175216384F8251084F8A5
:103EF0002C10A1836163A16300F080F82B4920603E
:103F0000884201D088177CBD0020FEF765FC6B4617
:103F100001220021242000F031FA1E20FEF7D7FCF8
:103F200086B2300AA0730420FEF7D1FC10F0FF0F18
:103F30000CD002208DF8040001AB012212212D20AB
:103F400000F01CFAA08B40F48050A0830620FEF7FE
:103F5000BEFC60600720FEF7BAFCA06016F01F00F0
:103F6000207501D110202075C0B200F045FAE80795
:103F700006D0FEF792FCA08B40F40060A08309E01D
:103F80000521362000F014F820F4007205213620B7
:103F900000F0D8F90120FEF71FFC0021042000F0FA
:103FA0001AF8A06100207CBD680C00203001CADE38
:103FB00038B54FF6FF7489B280B26B46022200F02A
:103FC00021F830B99DF800009DF8011000EB0120A8
:103FD00084B2204638BD38B54FF0FF3489B280B284
:103FE0006B46042200F00EF830B903216846425CAB
:103FF000491E02EB0424FAD5204638BD00210846AC
:10400000FFF7E9BF08B551B140F040008DF800005E
:10401000C8B27F2907D88DF8010002200BE08DF887
:104020000000012007E040F080008DF80100C80981
:104030008DF802000320694601F06AF908BD30B42A
:1040400014460A462146034630BC1120FFF7DABF6A
:104050000346052200211520FFF7D4BF03460522A1
:1040600000211720FFF7CEBF38B5054600208DF898
:10407000000000F04DF94FF4807422460DB14FF46A
:10408000407200210D2000F05DF99DB16B460122C8
:1040900003210F20FFF7B6FF9DF80000000709D5A8
:1040A000FFF774FE224600210D2000F04BF94FF07F
:1040B000FF3038BD002038BD08B501438DF8001031
:1040C000080A8DF80100080C8DF802006B460322E7
:1040D0000821262000F052F908BD08B501438DF8EB
:1040E0000010080A8DF80100080C8DF802006B46DC
:1040F00003220C21262000F041F908BD08B500215B
:104100008DF8001009498A6910B142F0005001E0B1
:1041100022F000508861000E8DF800006B460122ED
:104120000321042000F02AF908BD0000680C0020DB
:1041300038B50446C0076B464FF002024FF000014D
:104140004FF026002DD0FFF75DFF9DF80100012202
:1041500020F03C0040F014008DF8010011462620AC
:104160000DF1010300F00AF96B460122022136200D
:10417000FFF748FF9DF800006B4640F084008DF883
:10418000000001220221362000F0F8F810208DF8FE
:10419000000001208DF80100022228216B46362004
:1041A0000BE0FFF72FFF9DF801006B4620F0140095
:1041B0008DF8010002220021262000F0DFF8A00780
:1041C00011D50F208DF800006B4601222A213620E0
:1041D00000F0D4F800208DF800006B4601222A215F
:1041E000362000F0CBF838BD10B5044600211A2067
:1041F000FFF7F1FEC4F313026FF313000243002133
:10420000BDE810401A2000F0AAB8024641F60401A9
:104210002E2000F097B8000038B505466B46012205
:1042200003210420FFF7EEFE104C75B12A46002151
:104230000C2000F087F89DF8000040F010008DF889
:104240000000A06940F0805008E09DF8000020F0D8
:1042500010008DF80000A06920F08050A0616B462E
:1042600001220321042000F089F838BD680C0020E9
:1042700002460021182000F065B80000F8B50024BF
:104280000546224F26468DF8004080070BD580203A
:104290008DF800006B46012200210D2000F06EF821
:1042A000012087F82C00E8079DF8000021D040F09D
:1042B00006008DF800006B46012200210D2000F061
:1042C0005DF803210F20FFF773FE10F4816F1AD001
:1042D00040208DF800006B46012200210D2000F0E7
:1042E0004DF80020FFF73FFD87F82C604FF0FF34BA
:1042F00009E040F002008DF800006B460122002129
:104300000D2000F03BF82046F8BD0000680C0020AE
:104310001CB56B46012203210F20FFF773FE9DF8A9
:10432000000000F0800100F04000B1EB400F08D029
:1043300001208DF80400024601AB03210D2000F09E
:104340001DF81CBD08B589B28DF80020120A8DF841
:10435000012080B26B46022200F010F808BD38B58B
:1043600000236C46E254120A5B1C042BFADB89B270
:1043700080B22346042200F001F838BD08B551B1DF
:1043800040F0C0008DF80000C8B27F2909D88DF830
:10439000010002200DE040F080008DF800000120B7
:1043A00007E040F080008DF80100C8098DF8020098
:1043B0000320694601F092F808BD10B51446024486
:1043C000B2F5806F02D94FF0FF3010BD0B46821E50
:1043D00021460920FFF7D2FF002010BD054A10B585
:1043E000126940EA8150024300210820FFF7B7FF1D
:1043F000002010BD680C002038B504466B46012231
:104400000E212B20FFF7FEFD9DF8000004F01F0198
:1044100020F01F0001438DF800106B4601220E2191
:104420002B20FFF7ABFF38BD10B500220A60835C7C
:10443000D400A3400C68521C23440B60042AF6DB12
:1044400010BD000070B5094C054640212046FEF71E
:104450003DF8E9B22046FEF7DFF840212046FEF79E
:1044600042F80028F9D0284670BD0000003801400D
:104470007CB5002425466846FFF7EAFD042069461E
:104480002D0245EA146522020C5C1443401EF7D548
:10449000204629467CBD7CB5002425466846FFF7AA
:1044A000DDFD042069462D0245EA146522020C5CFC
:1044B0001443401EF7D5204629467CBD2DE9FF5FF9
:1044C0001D4614468B464FF0000A64264FF4003711
:1044D00039460098FDF76AF908B1761EF8D2012135
:1044E0000098FDF74FF9464F642639460098FDF7CE
:1044F0005DF908B9761EF8D2642600225946009864
:10450000FDF7D6F9DFF8F880DFF8F89008F10F082A
:1045100049460098FDF70AF9A8B1002E16DC0121E2
:104520000098FDF739F9444621460098FDF73EF919
:104530000028F9D100210098FDF7EEF84FF0FF3088
:1045400004B0BDE8F09F761EE2D2E8E764260121C0
:104550000098FDF717F939460098FDF727F908B9D3
:10456000761EF8D26426012259460098FDF7A0F97C
:10457000254F00983946FDF7D9F808B9761EF8D2CC
:10458000DFF88490002609F13E094FF4006B6D1EA0
:1045900015E0642749460098FDF7C8F808B97F1E62
:1045A000F8D20098FDF781F904F8010B59460098FC
:1045B000FDF770F901210098FDF7AEF8761CAE42C8
:1045C000E7D30098FDF771F920704FF2FF71009862
:1045D000FDF760F900210098FDF79EF80121009891
:1045E000FDF7DAF8444621460098FDF7DFF8002889
:1045F000F9D100210098FDF78FF85046A0E70000A0
:104600000100001082000700020003002DE9F047BE
:104610001F46164688468146002542F20F740AE07E
:1046200032784146484600F00BF82046761C401E82
:1046300080B2FCD26D1CBD42F2D3BDE8F087000011
:104640002DE9F0410F46164680460121FDF79AF804
:10465000224D642429464046FDF768F810B9641ECF
:10466000A4B2F7D2002239464046FDF721F914B929
:104670001B49002008601B4D642429464046FDF775
:1046800055F810B9641EA4B2F7D231464046FDF782
:1046900017F9144D6424AD1C29464046FDF746F831
:1046A00010B9641EA4B2F7D201214046FDF774F898
:1046B0000D4D642429464046FDF778F810B1641E7C
:1046C000A4B2F7D200214046FDF726F842F2273087
:1046D000401E80B2FCD20020BDE8F0810100030042
:1046E0006801002082000700100000107CB500F077
:1046F000F1F845A0FDF7A2FF00F048FE00F0A1FE92
:104700000120FFF7E9FB401C5ED000F097FE434814
:10471000FFF7EEF90120FFF70BFD012000F05CFE32
:1047200048F2B600FFF771FD0020FFF7A1FD002160
:104730003BA20846FDF79AFA3CA0FDF77FFF3FA099
:10474000FDF77CFF4748464A4449C0E90012474A02
:104750004549C0E902120021C0E90411444AC0E9F8
:104760000612C0E90811C0E90A11C0E90C11C0E93C
:104770000E11C0E910113F490322D1E90001CDE932
:10478000000169463C48FCF749FEBDF800100122D3
:104790003A48012901D0002932D00280BDF8021028
:1047A000374AFF2901D841801170117835A0FDF7F3
:1047B00045FFFCF749FD002138A20846FDF756FAEF
:1047C000FCF7AAFA00207CBD38A0FDF737FF0021D6
:1047D0003CA20846FDF74AFA3D4C4FF400564FF410
:1047E0007A7531462046FCF782FF2846FEF7F2FF35
:1047F00031462046FCF779FF2846FEF7EBFFF0E74D
:1048000000210180DEE7000068656C6C6F20647732
:104810006D31303030210D0A0000000030000020E2
:10482000494E49542050415353000000696E697449
:104830002070617373210D0A000000004149542D5E
:10484000425530312D4442205631303020543230E0
:1048500032302D352D31370D0A000000B81E85EBA2
:1048600051B8BE3FB8040020C3F5285C8FC2D53FC5
:104870000000D03F405500080000010864010020FE
:10488000340300206465766963653A616E63686F1E
:10489000722049443A25640D0A0000004453205414
:1048A000575220414E54484F5200000064776D31FA
:1048B00030303020696E6974206661696C210D0AA0
:1048C00000000000494E4954204641494C00000078
:1048D0000010014010B501217D20FDF7B3FA012140
:1048E0000803FDF7AFFA01218803FDF793FAFCF7FF
:1048F000EDFDFDF785FDFDF713FC6420FEF76AFF73
:1049000000F0D6FDFDF742F8FFF7CEF8FDF702FB09
:10491000FDF7E6F8BDE81040FDF7C4B801480068AF
:1049200070470000040000202DE9F04D1D460C46A4
:1049300098B0174621F0004123F00043002814BF2F
:104940004FF0010C4FF0000C0CEB440CFE4A0CEB4A
:1049500002064FEA620C66452BD33E0018BF0126C3
:1049600006EB45061644F94A964222D3F84A53EA22
:10497000070C02D0944205D148B918B00020114666
:10498000BDE8F08D002808BF4FF0000C01D04FF0BB
:10499000010C0CEB440212F5001F0AD8002F14BFC3
:1049A0004FF0010C4FF0000C0CEB450212F5001F0C
:1049B00007D918B03A462B462146BDE8F04DFDF721
:1049C000C6BE0022DFF88CA3002CB8BF534526DA00
:1049D000DFF884C36345A8BF022220DADFF870C382
:1049E0009C451CDCDFF874C30CEB235CBCF1140F9A
:1049F00008DDCCF1340627FA06FC0CFA06F6BE42B6
:104A00000DD108E05FB9CCF1140623FA06FC0CFACC
:104A100006F69E4203D10CF00102C2F1020251EAF5
:104A2000000C19D1002D17DA002C18BF022A01D072
:104A3000012A07D00220FDF7B1FE18B0BDE8F04D05
:104A4000FDF77ABE0220FDF7A9FEFDF775FE18B04E
:104A500081F00041BDE8F08DB7F1000C6CD15345F9
:104A600025D104F1804212F5801201BF00280020F8
:104A7000B74918B008BFBDE8F08DB548884207DCDB
:104A8000002DA1BF6046294618B0BDE8F08D07E0B3
:104A9000281E05DA80F0004118B06046BDE8F08DB0
:104AA000AF497944D1E9000118B0BDE8F08DDFF8D5
:104AB000A0C2634525D1002D1FDA19B1514512D18D
:104AC000D8B909E0002840F0EC82A24A214618B08B
:104AD00062F31E01BDE8F08D0020214618B060F39E
:104AE0001E01BDE8F08D08DA18B02346BDE8F04D90
:104AF000024600206146FBF73DBD18B02146BDE8E7
:104B0000F08D514518DAB5F1804F0DD0A5F1005C5C
:104B1000BCF1FF5C10D1B4F1000C0DDB18B06146A4
:104B2000BDE8F04D00F090BC234618B00246BDE849
:104B3000F04D1946FBF7ACBC060024F0004C3BD10D
:104B4000D9B1514533D1002C06DD002DA1BF002085
:104B5000514618B0BDE8F08D002C01DD002D1BDBA7
:104B6000002C13DA002D11DB012A4FF0000014BFD6
:104B700078497C4918B0BDE8F08D022A18BF002C96
:104B80000AD0012A08D1002C06DA0AE0002CB8BFAE
:104B9000002D11DA012A04D0002018B00146BDE82A
:104BA000F08D18B000204FF00041BDE8F08DA1F16C
:104BB0004050B0F17F601AD0012000EBE47050EA61
:104BC000020421D0624C521E4FF0000B104304BF70
:104BD0004FF0000B644C654883427CDD644A6548B5
:104BE00093421FDD884217DB002D25DB37E0002CC8
:104BF00000DA4AB1022A0CBF01204FF0FF3018B092
:104C0000BDE8F04DFBF74ABD0120FDF7C7FD18B028
:104C1000BDE8F04DFDF79DBD4D4A8A4202DC002DF6
:104C20000ADC1CE0814202DA002D18DA04E0484B6D
:104C3000994220DD002D12DD0220FDF7AFFDFDF7CA
:104C40008EFD05460E460022534658462146FBF788
:104C50001FFC18B066F31E012846BDE8F08D022047
:104C6000FDF79CFDFDF782FD0A46214618B062F370
:104C70001E01BDE8F08D002230466146FBF702FCC4
:104C800080460E466FF00102FBF7E3FC4FF0553211
:104C9000394BFBF7FAFB42463346FBF7F9FB0022A0
:104CA000364BFBF7F2FB82464246334604911046F0
:104CB0001946FBF7EDFB5246049BFBF7E9FB8A46DE
:104CC00000904FF0C0422E4B40463146FBF7E0FBD0
:104CD0002C4A2B4B00E027E0CDE906015146009815
:104CE000FBF7D6FB82460191274A284B40463146C6
:104CF000FBF7CEFB5246019BFBF7C4FB82460B46FB
:104D000002460591DDE90601FBF71BFBDDE9062301
:104D1000002688463046FBF7B5FB5246059BFBF75D
:104D2000B4FB024600F07EB90020B1F5801F07DA1F
:104D3000352230466146FBF78CFC06466FF03400A6
:104D400000EB215024E00000FFFF1F00FFFF0F00D9
:104D50000000F03F0000F07F0000404301FCFFFF37
:104D6000D21400000000F0FF0000F0BF0000E0419E
:104D70000000F043FFFFEF3F5555D53F0000E03FF7
:104D80004715F73FFE822B6544DF5DF80BAE543EBE
:104D9000A0F2FF300190C1F3130040F07F6141F0B9
:104DA00040510291FE498842D8BF002004DDFD49F0
:104DB0008142C8BF012001DD0D9008E000200D9068
:104DC0000198401C01900298A0F580100290029971
:104DD000F54878440B910D9900EBC100D0E9002310
:104DE0000F9330460A920B99FBF74CFBCDE9060175
:104DF000DDE90A2130460F9BFBF7A3FA02460B467A
:104E00000020EA49FBF7B6FB059102460B460090ED
:104E1000DDE90601FBF73CFB1490E5488A464FF0BC
:104E2000000878440299006812904FF0005040EA60
:104E300061010D980F9B01EB804000F50021099165
:104E40000A9A1298FBF71EFB32460B9BFBF71DFBE1
:104E500042465346FBF71CFB06460291404651462C
:104E6000099B129AFBF714FBDDE90623FBF70DFB08
:104E70003246029BFBF706FB059B009AFBF708FBFB
:104E80000091149A0490534610461946FBF700FB14
:104E900006460246C7480B46029106217844FDF7B4
:104EA000F5FBCDE90510029B324610461946FBF78B
:104EB000EFFADDE90532FBF7EBFA059106465346BA
:104EC00040461946149AFBF73CFA009B049AFBF7FC
:104ED000DFFA3246059BFBF734FACDE9051042466E
:104EE000534610461946FBF7D3FA0022B24B029103
:104EF0000A90FBF726FADDE90532FBF722FA0E46A7
:104F00004246AD4B4046FBF7BDFA029B0A9AFBF7BF
:104F1000B9FADDE90532FBF7B8FA424602910A9088
:104F2000334610465146FBF7B3FACDE90601534626
:104F3000149A02990A98FBF7ABFA8A460290334614
:104F4000424600990498FBF7A3FA5346029AFBF7EE
:104F5000F8F982460B4602460591DDE90601FBF7AA
:104F6000F0F9DDE90623002088460646FBF78AFAB9
:104F70005246059BFBF789FA824609914FF0604241
:104F80008E4B30464146FBF783FA049006918C4ADB
:104F90008A4B50460999FBF77BFA82460291894A6F
:104FA000894B30464146FBF773FA5246029BFBF7AA
:104FB000C8F9864B7B440D9A03EBC203D3E9002367
:104FC000FBF7BFF90E9007910198FBF767FB05917E
:104FD000DDE9061382460E9A0498FBF7B2F97C4A83
:104FE0007A440D9B02EBC303D3E9002300930292A2
:104FF000FBF7A7F95246059BFBF7A3F90026884665
:1050000052463046059BFBF73DFA009B029AFBF7A0
:1050100039FA069B049AFBF735FA079B0E9AFBF7C1
:1050200034FA024600200B46029038462946FBF728
:105030002FFA824601912B4638461946029AFBF711
:1050400021FA32464346FBF723FA5246019BFBF70F
:1050500078F907468A463246434629460298FBF7C6
:1050600017FA05460E463A465346FBF76AF9594A7F
:105070008846914221DBA8EB020353EA000210D1DB
:105080002A463346FBF7FEF9CDE90401524A534B59
:1050900038465146FBF755F9DDE90423FBF7A0FB41
:1050A00021D20220FDF77AFBFDF759FB0A46214683
:1050B00018B062F31E01BDE8F08D494B28F00042A4
:1050C0009A4210D3474A08EB020353EA00027FF4E6
:1050D000C6AD2A463346FBF7D5F93A465346FBF7A9
:1050E0007FFB7FF6BCAD0022019228F000403E49D4
:1050F0003E4A01EB2051824223DA481C4FF48011D2
:1051000021FA00F040443A4AC0F30A517A44394B3C
:10511000A1F2FF31CB4020EA0303C0F3130040F4B7
:105120008010C1F11401C84012680190B8F1000F5D
:10513000BCBF4042019028463146FBF7A3F9054623
:105140000E462A46334638465146FBF7FAF84FF0EA
:1051500000084246284B40460591FBF799F9CDE9F6
:105160000601264A264B40460599FBF791F9009126
:1051700002902A46334640460599FBF783F93A46A2
:105180005346FBF782F91F4A1F4BFBF781F9009B3F
:10519000029AFBF7D6F80746884602460B4635E0EA
:1051A0008E9803007AB60B001A1100000000F03F41
:1051B00052110000801000000000084009C7EE3FB7
:1051C000FD033ADCF5015B14E02F3EBE580F0000F2
:1051D0001C0F000000009040FE822B654715973C95
:1051E00000CC904000346F3F01FCFFFF0000E03F27
:1051F000680E0000FFFF0F00432EE63F396CA80C3D
:10520000615C20BEEF39FAFE422EE63FDDE9060181
:10521000FBF797F8DDE9062305460E46FBF732F962
:105220003A464346FBF731F90F462A46334600908B
:1052300010461946FBF72CF9824602462E4888464E
:105240000B4605217844FDF721FA52464346FBF709
:105250001FF92A463346FBF718F980468A463B4633
:1052600028463146009AFBF713F93B46009AFBF7B4
:1052700068F80691009000224FF080434046514666
:10528000FBF700F90F460C9042465346284631463C
:10529000FBF7FEF83B460C9AFBF76CF9069B009A6D
:1052A000FBF7F0F82A463346FBF7ECF80022134BE5
:1052B000FBF7EBF8054601980E4601EB0051081587
:1052C000002810DC28463146019AFBF7C2F9FDF7A9
:1052D000C5F9042808BFFDF749FA28463146019A66
:1052E000FBF7B7F905460B4618B02A465846214643
:1052F000BDE8F04DFBF7CCB8080D00000000F03F12
:10530000FFF7A0B80149FFF79DB80000180400207E
:105310002DE9F05F1D4616468A4607460024FEF733
:105320006EFA18494FF010098346C1F80090DFF873
:1053300058800DE01AF80410A8F80C10012140461E
:10534000FCF770FF0028F9D0B8F80C002870641C36
:10535000BC42EFDB00200246414606E08A810B8911
:10536000DB07FCD08B892B54401CB042F6D3054997
:10537000091FC1F800905846FEF738FA0020BDE832
:10538000F09F00001408014000300140F8B54FF4D0
:105390008054ADF8004010208DF803000D4E032519
:1053A0008DF8025069463046FCF71AF9214630461E
:1053B000FCF79BF9ADF8004000208DF803008DF854
:1053C000025069463046FCF70BF90220FEF702FA5C
:1053D000F8BD0000000C01407FB500282AD002244F
:1053E000ADF80C4028208DF80F0003A91248FCF7F7
:1053F000F7F801210846FCF7DFF800258DF8045086
:10540000082000948DF8050001248DF806406846B8
:10541000FBF778FF4FF44070FCF72AFB07208DF86C
:1054200008008DF809408DF80A508DF80B4002A84D
:10543000FCF7ECFA7FBD0000000C01400820FCF7EF
:105440005BBE2020FCF758BE2DE9F04106460F4612
:10545000FBF748FB041E0D4618BF0120284320F02F
:105460000040C0F17F6000F1E040C00F0ED0301C62
:1054700018BF0120384320F00040C0F17F6000F1E8
:10548000E040C00F04BF0120FDF788F920462946FF
:10549000BDE8F08110B50022029C19B114B118606A
:1054A000012002E0002010BD521C8A42FCD310BD36
:1054B0001FB54FF4E13000900020ADF80400ADF8C6
:1054C0000600ADF80800ADF80C000C20ADF80A009D
:1054D00069460020FCF7D4FE1FBD00002DE9F04115
:1054E000984615460F4606460024FEF788F9024600
:1054F000114810230360114806E0395D818101895C
:10550000C907FCD08189641CB442F6DB002107E0A6
:1055100018F8014084810489E407FCD08489491C7F
:10552000A942F5D30448001F03601046FEF75EF958
:105530000020BDE8F0810000140801400030014067
:1055400001000000FF000000000204000004080049
:1055500001000000FF0008008000000100020000C0
:1055600000400000000002000400000004000000F1
:105570000400000004000000100000008000000093
:1055800080000000800000000100002000010020D9
:1055900000400080080080000400000010000000AF
:1055A00000010000000100000001000000010000F7
:1055B0002000000000010000010000200001002088
:1055C0000040008008008000000002000600060085
:1055D000060006000300060000000D0008000D0094
:1055E0000E000F0003000700060028001700280027
:1055F000280028000900170000000000000000003B
:105600000000000000000000000000F800000000A2
:10561000000000333000000000100C06100C0600E3
:10562000000000000000000040C07840C07840004A
:10563000043F04043F040400007088FC08300000AC
:10564000001820FF211E0000F008F000E018000004
:1056500000211C031E211E0000F0088870000000BD
:105660001E2123241927211010160E00000000000F
:105670000000000000000000000000E0180402002C
:10568000000000071820400000020418E00000009D
:105690000040201807000000404080F0804040009B
:1056A0000202010F01020200000000F000000000F1
:1056B0000101011F010101000000000000000000C5
:1056C00080B070000000000000000000000000003A
:1056D00000010101010101010000000000000000C3
:1056E000003030000000000000000000806018045E
:1056F000006018060100000000E010080810E0003B
:10570000000F102020100F00001010F80000000003
:105710000020203F2020000000700808088870004A
:1057200000302824222130000030088888483000CA
:105730000018202020110E000000C02010F80000EA
:1057400000070424243F240000F808888808080083
:105750000019212020110E0000E010888818000098
:10576000000F112020110E0000380808C83808006A
:105770000000003F000000000070880808887000EA
:10578000001C222121221C0000E010080810E0006B
:105790000000312222110F00000000C0C0000000F4
:1057A0000000003030000000000000800000000019
:1057B0000000806000000000000080402010080011
:1057C00000010204081020004040404040404000DA
:1057D00004040404040404000008102040800000B5
:1057E0000020100804020100007048080808F000BA
:1057F0000000003036010000C030C828E810E0008A
:105800000718272423140B000000C038E000000014
:10581000203C23020227382008F88888887000007E
:10582000203F202020110E00C03008080808380052
:10583000071820202010080008F808080810E000C9
:10584000203F202020100F0008F88888E80810006A
:10585000203F20202320180008F88888E80810003E
:10586000203F200003000000C03008080838000076
:1058700007182020221E020008F808000008F80877
:10588000203F210101213F20000808F808080000FE
:105890000020203F2020000000000808F808080031
:1058A000C08080807F00000008F888C028180800A9
:1058B000203F20012638200008F8080000000000E2
:1058C000203F20202020300008F8F800F8F80800D9
:1058D000203F003F003F200008F830C00008F808D3
:1058E000203F200007183F00E01008080810E000E3
:1058F0000F10202020100F0008F808080808F000FA
:10590000203F210101010000E01008080810E0001C
:105910000F18242438504F0008F8888888887000B1
:10592000203F2000030C3020007088080808380051
:105930000038202121221C00180808F80808180047
:105940000000203F2000000008F808000008F808C8
:10595000001F202020201F000878880000C8380879
:10596000000007380E010000F80800F80008F800F1
:10597000033C0700073C030008186880806818088B
:1059800020302C03032C30200838C800C838080009
:105990000000203F2000000010080808C838080058
:1059A0002038262120201800000000FE02020200FC
:1059B0000000007F40404000000C30C000000000AC
:1059C000000000010638C00000020202FE000000D4
:1059D000004040407F00000000000402020204007A
:1059E00000000000000000000000000000000000B7
:1059F000808080808080808000020204000000009F
:105A00000000000000000000000080808080000096
:105A10000019242222223F2008F800808000000084
:105A2000003F112020110E00000000808080000047
:105A3000000E112020201100000000808088F80056
:105A4000000E112020103F20000080808080000088
:105A5000001F222222221300008080F088888818EC
:105A60000020203F202000000000808080808000F7
:105A7000006B94949493600008F80080808000008C
:105A8000203F210000203F20008098980000000067
:105A90000020203F20200000000000809898000097
:105AA00000C08080807F000008F8000080808000B7
:105AB000203F24022D302000000808F800000000DC
:105AC0000020203F20200000808080808080800097
:105AD000203F20003F20003F808000808080000029
