:020000040800F2
:10000000D0120020B90B0008031A0008F1160008EE
:10001000011A000869120008012D00080000000004
:10002000000000000000000000000000692300083C
:100030006B12000800000000271E0008852400083D
:10004000D30B0008D30B0008D30B0008D30B000818
:10005000D30B0008D30B0008D30B00086D12000867
:10006000D30B0008D30B0008D30B0008D30B0008F8
:10007000D30B0008D30B0008D30B0008D30B0008E8
:10008000D30B0008D30B0008D30B0008D30B0008D8
:10009000D30B0008D30B0008D30B0008D30B0008C8
:1000A000D30B0008D30B0008D30B0008D30B0008B8
:1000B000D30B0008D30B0008D30B0008D30B0008A8
:1000C000D30B0008D30B0008D30B0008D30B000898
:1000D000D30B00086D2B0008D30B0008D30B0008CE
:1000E000D30B0008D30B0008D30B0008D30B000878
:1000F000D30B0008D30B0008D30B0008D30B000868
:10010000D30B0008D30B0008D30B0008D30B000857
:10011000D30B0008D30B0008D30B0008D30B000847
:10012000D30B0008D30B0008D30B0008D30B000837
:10013000DFF810D000F052FD00480047955000084D
:10014000AFF30080D0120020D2B201E000F8012B02
:10015000491EFBD270470022F6E710B513460A4647
:1001600004461946FFF7F0FF204610BD30B505469E
:100170002A460B4612F8010B13F8014B08B1A042B6
:10018000F8D01CB1002802D06D1CF1E7284630BD24
:10019000421C10F8011B0029FBD1801A704730B5B2
:1001A00004460020034600E05B1C934203D2E05C5F
:1001B000CD5C401BF8D030BD70B50F4D00B928683C
:1001C000002412E00A4602E09E4203D0521C13783B
:1001D000002BF9D1DAB2224305D02BB124B1002192
:1001E00000F8011B04E00446401C0678002EE9D10B
:1001F0002860204670BD00001C04002070B5064633
:1002000002F0D2FD046805460A220021304600F0C3
:100210009DFB2C6070BDF0B480EA0102D40F420057
:10022000B2EB410F02D20246084611464A0042D0C4
:10023000C30DDDB2C1F3C752AD1A202D35DAC1F3BB
:10024000160141F4000204B15242C5F1200602FA3F
:1002500006F12A411044B3EBD05F23D0C4B1012D85
:10026000A0EBC35009DCF0BC4FF0004202EAC352DD
:10027000DBB200F5000000F0AABB400000F1807086
:1002800000EBC350A0F1807040EAD170490009E052
:10029000490841EAC071A0EBC35000F500004008D6
:1002A00000EBC350F0BC00F089BB6142012202EBBD
:1002B0004101001BF6E7F0BC704781F00041AAE75E
:1002C00080F00040A7E730B480EA010202F0004568
:1002D00030F0004221F0004013D090B1C30DD40D96
:1002E000C2F31601C0F31600E41A41F4000140F411
:1002F00000027D34914201D3641C00E04900002CCF
:1003000002DA30BC002070474FF400000023914215
:1003100001D3891A034340084FEA4101F7D151B193
:10032000914202D14FF0004105E002D24FF00101AD
:1003300001E06FF0010103EBC450284430BC00F031
:100340003DBB2DE9FE4F804681EA0300C00F0C46FD
:10035000009021F0004123F00045B8EB0200A941D4
:1003600005D24046214690461C460B46024623F0E5
:100370000040104347D0270DC7F30A00C3F30A51CA
:100380000290401A019040286BDAC3F3130040F446
:10039000801B0098924620B10023D2EB030A63EB46
:1003A0000B0B01985946C0F14002504600F09DFAEF
:1003B00006460D4650465946019A00F0B5FA10EB34
:1003C00008006141002487EA115284EAE7731A4366
:1003D00040D0009A62B3019A012A4FEA075215DC15
:1003E000001B61EB02014FF0004202EA0752CDE927
:1003F0000042001C41F5801132462B4600F024FBE0
:1004000003B0BDE8F08F40462146F9E7001B61EBE1
:100410000201001C41F5801300185B412018A2F571
:10042000001747EB030140EAD570B6196D4111E0A2
:100430006D084FEA360645EAC0754FEA0752001BC1
:1004400061EB0201001C41F5801149084FEA3000C0
:100450000019514132462B4603B0BDE8F04F00F081
:10046000E4BA0098012240000023D0EB020263EBC3
:10047000E073009821464FEAE074B8EB000061EBAE
:100480000401E9E783F000435BE781F0004158E7AE
:100490002DE9FE4F81EA030404F0004421F00041FD
:1004A00000944FF0000B23F0004350EA01045ED0AB
:1004B00052EA03045BD0C3F30A54C1F30A552C4437
:1004C000A4F2F3340194A0FB0254C1F3130141F4EC
:1004D0008011C3F3130343F4801301FB024400FBB8
:1004E000034E840A970A44EA815447EA8357A4FBDF
:1004F000076802958D0A05FB07854FEA932C04FBDC
:100500000C542705029D4FEA065847EA1637B5EB0B
:1005100008056EEB070C870E920E47EA811742EA38
:100520008312A7FB0201B6EB0B0164EB00042B0D59
:1005300043EA0C335E1844EB1C50DA465146E7FBA5
:100540000201C5F313044FEA0B3343EA14534FEA95
:100550000432019C43EA0603A4F10C040294009CBB
:10056000CDE900B400F070FA03B0BDE8F08F0020D0
:100570000146F9E72DE9F04D81EA030404F0004B50
:1005800021F0004514464FF0000A23F0004150EAE4
:10059000050220D054EA01021DD0C5F30A570246D5
:1005A000C5F31303C1F31300C1F30A5640F48015D9
:1005B00043F48013A7EB0608101BD64608F2FD385B
:1005C00073EB050002D308F1010801E092185B41CA
:1005D000B8F1000F03DA00200146BDE8F08D0020DD
:1005E0004FF48011064684460EE0171B73EB050797
:1005F00005D3121B63EB050306434CEA010C4908C3
:100600004FEA300092185B4150EA0107EDD152EAFF
:10061000030012D082EA040083EA0501084305D0F2
:10062000101BAB4106D20122002306E000224FF04E
:10063000004302E06FF0010253101AEB06004CEB8E
:10064000085110EB0A0041EB0B01BDE8F04D00F042
:10065000ECB970B521F0004303430CD0C1F30A5547
:100660000024D5EB040564EB0403D617AD1AB3419F
:1006700002DB0020014670BD201841EB025170BD25
:10068000C10F80EAE0700844CA079623002100F0F9
:100690009EB996230022114600F099B90EB5C10FFC
:1006A00080EAE0700844CA07002140F233438DE835
:1006B0000E000A460B4600F0C7F903B000BD0EB5A8
:1006C00040F2334102910021CDE900110A460B4668
:1006D00000F0BAF903B000BD3EB5CA17CB0F002435
:1006E00050405140C0186141DA0740F23343009452
:1006F000CDE901232246234600F0A6F903B030BD20
:1007000000F0004220F00040C10DC0F3160040F49C
:1007100000007F2901DA00207047962903DCC1F12F
:100720009601C84001E096398840002AF4D0404242
:10073000704770B5C1F30A5201F000450024C1F3BF
:10074000130140F2FF3341F480119A4201DA002094
:1007500070BD40F233439A42A2F2334203DC52426C
:1007600000F0D2F800E090402C43F1D0404270BD40
:1007700070B5C1F30A5201F000450024C1F3130122
:1007800040F2FF3341F480119A4202DA0020014620
:1007900070BD40F233439A42A2F2334203DC52422C
:1007A00000F0B2F801E000F0A0F82C43F0D00023F4
:1007B000D0EB030063EB010170BD00F0004230F0AC
:1007C00000400AD0C10D01F56071C0F3160042EA85
:1007D0000151C2084007114370470020014670478D
:1007E00030B5041E71F1000404DB4FF000444042B8
:1007F00064EB0101141E73F1000405DB1C464FF08D
:100800000043524263EB0403994208BF904230BD5B
:1008100001F0004330B421F0004150EA010206D05B
:100820000A0DA2F56072C1F31301002A02DC30BC8C
:1008300000207047440F44EAC104C100E01830BCF6
:1008400000EBC25000F0BAB8002801DBC0F1004054
:10085000002901DBC1F100418842704730B50B46E9
:10086000014600202022012409E021FA02F59D42E0
:1008700005D303FA02F5491B04FA02F52844151EB4
:10088000A2F10102F1DC30BD2DE9F05F0546002048
:1008900092469B4688460646814640241BE02846F1
:1008A00041464746224600F02FF853465A46C01AA2
:1008B000914110D311461846224600F016F82D1A21
:1008C00067EB01084F4622460120002100F00DF899
:1008D00017EB00094E41201EA4F10104DFDC48465D
:1008E00031462A464346BDE8F09F202A04DB203AE1
:1008F00000FA02F1002070479140C2F1200320FA73
:1009000003F3194390407047202A04DB203A21FA70
:1009100002F00021704721FA02F3D040C2F1200218
:100920009140084319467047202A06DBCB17203A2E
:1009300041FA02F043EAE07306E041FA02F3D040E4
:10094000C2F1200291400843194670472DE9F04753
:1009500091460F4680460446002614F8015B2DB1EF
:1009600000F04EF90068405DC007F6D12B2D02D093
:100970002D2D18D0641E4A463946204600F044F911
:1009800027B13968A14201D1C7F8008071054FF045
:1009900002040BD54042002803DD02F005FA046092
:1009A000A007BDE8F08746F48066E4E70028F8DA9F
:1009B00002F0FAF904606FF00040F2E70029A8BFE6
:1009C0007047401C490008BF20F00100704710B478
:1009D000B0FA80FC00FA0CF050EA010404BF10BC2D
:1009E000704749B1CCF1200421FA04F411FA0CF15A
:1009F00018BF012121430843A3EB0C01CB1D4FEA93
:100A000000614FEA102042BF002010BC704700EB8D
:100A1000C35010440029A4BF10BC7047401C4900BB
:100A200008BF20F0010010BC704710B5141E73F110
:100A3000000408DA401C41F1000192185B411A439E
:100A400001D120F0010010BD2DE9F04D92469B46EA
:100A500011B1B1FA81F202E0B0FA80F22032904690
:100A6000FFF743FF04460F4640EA0A0041EA0B0144
:100A700053465A46084313D0114653EA010019D091
:100A8000C8F140025046FFF73FFF05460E4650466C
:100A900059464246FFF729FF084305D0012004E0EC
:100AA00020463946BDE8F08D0020054346EAE07651
:100AB0002C4337430A986305E40AA0EB08000022A0
:100AC000FD0A44EA47540A3002D500200146E9E70E
:100AD000010510196941DDE9084500196941BDE8C2
:100AE000F04DA2E72DE9F04D00231A461B1A8A416A
:100AF00003DB00200146BDE8F08DC1F30A52C1F3CB
:100B0000130141F480154FF0000BD10702D10018FA
:100B10006D41521E0027044640F2FF11384601EB9A
:100B2000620A3E468046024600204FF48011FFF7DD
:100B3000EBFEC2197141BB1846EB0100B4EB030C8C
:100B400075EB000C04D3E41A65EB000517460E465E
:100B5000241908F101006D4180463428E3DDF919BC
:100B600046EB0600091BA84103D24FF0FF321346A3
:100B700001E0002213461BEB070046EB0A51BDE8DB
:100B8000F04DFFF752BFC1F30A52C1F3130140F217
:100B9000FF3341F480119A4202DA00200146704787
:100BA00040F233439A42A2F2334202DC5242FFF750
:100BB000ABBEFFF79ABE00000648804706480047D4
:100BC000FEE7FEE7FEE7FEE7FEE7FEE7FEE7FEE7FD
:100BD000FEE7FEE79524000831010008064C074DAA
:100BE00006E0E06840F0010394E8070098471034FD
:100BF000AC42F6D3FFF7A0FA386B0008586B000838
:100C000000487047C46A00082DE9F05F824600780A
:100C1000002715468B460AF10104B946302801D059
:100C20009DB113E014F8010B0127782803D0582850
:100C300001D045B10AE00DB1102D07D100271025D4
:100C400014F8010B02E0082500E00A250026B04652
:100C50000EE005FB080005FB06F1012701EB10463D
:100C60001FFA80F8B6F5803F00D3B94614F8010B9F
:100C7000294600F018F80028EBDABBF1000F05D088
:100C80000FB1641E00E05446CBF80040B9F1000FEC
:100C900006D002F089F802210160C81EBDE8F09F6D
:100CA00048EA0640FAE73A2800D2303820F020021D
:100CB000412A01D3A2F13700884201D34FF0FF301F
:100CC000704770B58C1810F8015B15F0070301D15F
:100CD00010F8013B2A1106D110F8012B03E010F89F
:100CE000016B01F8016B5B1EF9D12B0705D40023C2
:100CF000521E0DD401F8013BFAE710F8013BCB1A64
:100D0000921C03E013F8015B01F8015B521EF9D558
:100D1000A142D8D3002070BDA84EA94CA94F90B0D5
:100D20004FF02D0B4FF4814A4FF00009002003F0E3
:100D300011FF002003F04CFE00210F2003F0FFFD07
:100D40003042A060F8D0208940047DD55246002171
:100D50000F2003F0A2FF0021102003F0F0FD40B2AD
:100D6000B0F5806F04DC81B20022964803F01BFED0
:100D7000B9785846B1FBF0F20BFB121223799A4274
:100D8000D4D1B1FBF0F20BFB12100E90FD788C4920
:100D900087F80290C84687F803900A2243318948B1
:100DA000FFF7FDF980B186490A2285318548FFF7B2
:100DB000F6F921790843B9D1F87A01287DD0B87ABB
:100DC000814904F0C3FFB1E704F026F8C4E9040147
:100DD0004FF4FA7003F0A7FE40F6E44003F0BAFEC9
:100DE000774821784F3000228170C57001460F206E
:100DF00003F081FF00210F2003F08EFF022003F09B
:100E0000DBFE00210F2003F09AFD3042A060F8D0F5
:100E10002089400499D5524600210F2003F03DFF60
:100E20000021102003F08BFD00F07F01182903DC66
:100E30000022644803F0B7FD87F80280F978404645
:100E4000A942C0D1F87000E0ABE05D490A225E31F2
:100E50005C48FFF7A4F90028B5D103F0F0FFC4E91E
:100E6000060103F0D9FFC4E9080156480CA90A306D
:100E700003F0A4FF53480DA90E3003F09FFF514823
:100E800007A9123003F09AFF21690891D4F818805D
:100E9000216A02910D980C990190401AFFF70FFCFE
:100EA000CDE905100299A1EB0800FFF708FCCDE998
:100EB000031007990198081A00E078E0FFF7FFFB9C
:100EC000CDE901100899A8EB0100FFF7F8FB0891A4
:100ED0000090DDE90510DDE90332FFF732FADDE9C4
:100EE0000132FFF72EFA089B009AFFF72AFACDE9A4
:100EF0000910DDE90110089B009AFFF7C9FA01917A
:100F00008046DDE90510DDE90332FFF7C1FA42460C
:100F1000019BFFF7B7FADDE90932FFF72BFBFFF77B
:100F200027FCFFF7D9FB294A294BFFF7B1FA4FF00D
:100F30009852284BC4E90A01FFF7AAFAC4E90C0148
:100F4000FFF766FC1E4B014638335A78187803F0D9
:100F50000BFCD4E90C23FFF798FA00221E4BC4E9DE
:100F60000C01FFF795FAFFF7E4FB642290FBF2F324
:100F7000134976318B7290FBF2F302FB1300C872B7
:100F80000E98087320788870CD7000220F2003F02F
:100F9000B2FE00210F2003F0BFFE002003F00CFE84
:100FA000C4E60E4A00210F2003F077FEBEE6054896
:100FB000FD70397B0D3001F097FEB7E600D0272495
:100FC00030030020B40C002018040020FA48CE3B67
:100FD0001835B13D19DDB14100005940009027247A
:100FE00010B5022807D102F04BFF4FF0FF3420B1BB
:100FF00002F060FE08B1012010BD204610BD0000C7
:101000007CB5274D022805D00024032807D00128ED
:101010002DD042E04220ADF80000012220E021A1C5
:101020001068FFF7C9F8FFF7E9F880B200944FF0B5
:10103000FF360194012801D020B116E00120ADF85F
:10104000000001E0ADF8004016A10020FFF7B4F861
:10105000FFF7D4F880B2FF2807D8ADF802000222CB
:101060006946284600F004FA17E030467CBD00943B
:10107000032269462846019400F0CEF9BDF800101D
:1010800009A001F03FFEBDF802100AA001F03AFEEF
:10109000BDF804100AA001F035FE01207CBD00005F
:1010A000000001082C00000062756666303A256475
:1010B0000D0A000062756666313A25640D0A00006B
:1010C00062756666323A25640D0A00000120704799
:1010D0001CB5022809D106490322D1E90201CDE954
:1010E00000016946034800F0C3F901201CBD00005F
:1010F000086000080000010810B5022801D0012096
:1011000010BD06A001F0FEFD06480168064A01F484
:10111000E06111430160BFF34F8FFEE70D0A4F4BB3
:101120000D0A00000CED00E00400FA0538B50228B5
:1011300018D100246846009400F08CFF0098FFF757
:101140003CFB02460B4608A001F0DCFD684600941B
:1011500000F024FF0098FFF730FB02460B4604A086
:1011600001F0D0FD012038BD543A25660D0A00007B
:10117000483A25660D0A000008B502280CD1002067
:101180000090684602F0FCFF0098FFF716FB02464D
:101190000B4602A001F0B6FD012008BD616E676C30
:1011A000653A25660D0A000010B502280DD0032807
:1011B0000BD108A11068FEF7FFFFFFF71FF880B200
:1011C000411F2D2903D804490860012010BD4FF0AC
:1011D000FF3010BD2C0000001000002010B50228C8
:1011E00010D003280ED108A11068FEF7E5FFFFF725
:1011F00005F880B20549012803D010B14FF0FF3047
:1012000010BD0870012010BD2C000000C40000209B
:1012100010B5022806D0032804D0012802D102A06C
:1012200001F070FD012010BD4149542D425530316F
:101230002D444220563130302054323032302D355A
:101240002D31370D0A000000064B0020014603F146
:10125000B40200BF43F8201042F82010401C2D2893
:10126000F8DB7047F0080020FEE7704770B50220F9
:1012700000F036F800281DD00F4A10780F4D4FF4BB
:10128000005448B100201070012004F0CBFD21462D
:10129000284600F028FA08E001201070002004F031
:1012A000C1FD2146284600F020FABDE8704002202A
:1012B00000F006B870BD00000000002000100140E2
:1012C00001490860704700001404014003490246C8
:1012D00000200968114200D001207047000401403D
:1012E000064A014600201268044B0A4014331B686A
:1012F0000B4202D0002A00D00120704700040140B8
:1013000030B51A498379026853B30B6893430B6075
:101310000A1D13680468A343136002790A44136822
:10132000046823431360114A083213680468A34316
:101330001360131D1C680568AC431C604479102CB5
:1013400005D021440A68006802430A6030BD116874
:10135000046821431160196800680143196030BDB9
:101360000079084401689143016030BD00040140E8
:1013700070B505464FF43026304600F067F8042873
:1013800011D1094C206940F002002061656120699B
:1013900040F040002061304600F058F8216941F6E5
:1013A000FD721140216170BD0020024008490420F7
:1013B000CA68D20701D001207047CA68520701D518
:1013C00002207047C968C906FBD50320704700009A
:1013D000002002400248016941F08001016170472C
:1013E00000200240F0B506464FF400570D4638463F
:1013F00000F02CF804280CD1064C206940F00100C4
:1014000020613580384600F021F82169BA1E11406C
:101410002161F0BD0020024010B5002306E000BFAE
:1014200030F8134021F813405B1C9BB29342F7D372
:1014300010BD000003480249416003494160704704
:101440002301674500200240AB89EFCD00B503467C
:10145000FFF7ACFF03E000BFFFF7A8FF5B1E01280A
:1014600003D0002B00D1052000BD002BF4D1FAE7FA
:101470002DE9F0414FF0006516460F460446A8429C
:101480001ED3104904EB4600884219D2FFF7D2FF61
:10149000A4F10060C00A05EBC020FFF769FF00253A
:1014A00008E000BF37F8151004EB4500FFF79AFF7E
:1014B0006D1CADB2B542F5D3BDE8F041FFF78ABF70
:1014C000BDE8F08100000808F8B501217D2000F09A
:1014D000C3FC4FF6FF70ADF800000020304D8DF8D2
:1014E00003006946284600F079F82E4F69463846D1
:1014F00000F074F82C4E6946304600F06FF86946EB
:101500002A4800F06BF86946294800F067F804247F
:10151000ADF800408DF803406946384600F05EF8AB
:1015200049F68150ADF800008DF803406946304619
:1015300000F054F84FF4EC50ADF800008DF8034083
:101540006946304600F04AF86003ADF800008DF8B7
:1015500003406946284600F041F80E20ADF800002F
:1015600010248DF8034003278DF802706946284641
:1015700000F034F842F20800ADF800008DF80340A6
:101580008DF802706946304600F028F800210120ED
:1015900000F076F86102304600F0A7F80020F8BDB0
:1015A00000080140000C01400010014000140140FF
:1015B0000018014010B58A0721F003040649130FF3
:1015C00021440F228C689A4094438C608A6898402A
:1015D00002438A6010BD000000000140F0B5CA78E7
:1015E000002502F00F03D20601D58A7813430A784A
:1015F0004FF00F0E12F0FF0F4FF001021CD00468E5
:101600000F8802FA05F63740B74211D14FEA850C30
:101610000EFA0CF724EA070703FA0CF43C43CF78E0
:10162000282F02D0482F02D002E0466100E0066178
:101630006D1C082DE4D304600C88FF2C1ED944686F
:101640005FF0000606F1080702FA07F50F882F4041
:10165000AF420FD14FEA860C0EFA0CF7BC4303FAE7
:101660000CF73C43CF78282F00D14561CF78482F25
:1016700000D10561761C082EE4D34460F0BD000063
:10168000F0B5144C002801DAE36900E06368420D0C
:10169000120185B2C0F301579540C0F30346032FF2
:1016A00005D0C2020AD50322B240934307E023F0DB
:1016B0007062636823F07063636002E0AB4343F0E1
:1016C000706201B12A43002801DAE261F0BD626074
:1016D000F0BD0000000001400246002092680A426E
:1016E00000D00120704741617047016170470000E0
:1016F00001A001F007FBFEE7486172644661756C6A
:10170000745F48616E646C6572200D0A0000000011
:101710000029018802D041F4806101E021F4806158
:101720000180704702460020938A128B43EA0243ED
:1017300023F07F42914300D10120704700290188A6
:1017400002D041F0010101E021F001010180704768
:10175000094910B588424FF0010101D14C0501E063
:101760004FF48004204600F06BFB2046BDE810409B
:10177000002100F065BB00000054004000290188F2
:1017800002D041F4807101E021F480710180704742
:101790000029018802D041F4007101E021F40071B8
:1017A000018070470CB50246002000920A0F21F01C
:1017B0007F41019202D0009A143202E0009A090C93
:1017C0001832009212680A4200D001200CBD0000BD
:1017D00070B50446808886B00D4620F03F06684606
:1017E00000F052FB27490298B0FBF1F189B20E4399
:1017F000A680228822F001022280234B2A689A4286
:101800001CD85200B0FBF2F080B2042800D20420B1
:10181000491C2184A083208840F001002080218879
:101820004FF6F5300140A8886A89104308432080AC
:10183000A88929890843208106B070BDEB88A3F5EB
:101840003F46FF3E0BD002EBC20303EB0212B0FB9C
:10185000F2F080B240F48040020506D007E002EBCF
:101860004202B0FBF2F080B2F6E740F001004FF424
:10187000967251434FF47A72B1FBF2F140F400409A
:10188000C6E7000040420F00A0860100B1F5006FDE
:10189000018803D021F400610180704741F40061A8
:1018A000FAE7008AC0B2704712B141F0010101E0CD
:1018B00001F0FE0101827047018270472DE9F04777
:1018C00088461D46164681460121FFF757FF294FDE
:1018D000642439464846FFF725FF10B9641EA4B2B8
:1018E000F7D2002241464846FFF7DEFF14B92249ED
:1018F00000200860214F642439464846FFF712FF54
:1019000010B9641EA4B2F7D231464846FFF7D4FF9F
:101910001A4E6424B61C31464846FFF703FF10B93F
:10192000641EA4B2F7D229464846FFF7C5FF6424D7
:1019300031464846FFF7F6FE10B9641EA4B2F7D24E
:1019400001214846FFF724FF0D4D642429464846EF
:10195000FFF728FF10B1641EA4B2F7D20021484659
:10196000FFF7D6FE4F20401E80B2FCD20020BDE81B
:10197000F0870000010003006801002082000700DA
:101980001000001038B50121480500F04DFA012182
:10199000092000F061FAC020ADF8000003208DF8A6
:1019A00002001C208DF8030069461148FFF716FE5F
:1019B000104C2046FFF7CCFE0F49002088804BF6E4
:1019C000FF70C8803020088120154881000188817F
:1019D0000A48086001212046FFF7B0FE064920466C
:1019E000FFF7F6FE01212046FFF792FE38BD00000A
:1019F000000C014000540040580C0020801A0600E2
:101A0000FEE7704770B50F23C47801780122F4B166
:101A1000144C2468457804F4E064C4F5E064240AB6
:101A2000C4F10406E3408478B5401C402C4301F126
:101A3000E021230181F80034007800F01F018A4082
:101A40004009800000F1E020C0F8002170BD01F0E5
:101A50001F0082404809800000F1E020C0F880218A
:101A600070BD00000CED00E0024908430249086027
:101A7000704700000000FA050CED00E00907090EB0
:101A8000002806DA00F00F0000F1E02080F8141DB5
:101A9000704700F1E02080F80014704704480168A6
:101AA000044A01F4E06111430160BFF3408FFEE797
:101AB0000CED00E00400FA0570B5002404F1B0005C
:101AC000C0B2002100F0F6F80021084600F0F2F85C
:101AD0000021102000F0EEF800250121002000F088
:101AE000E9F86D1CEDB2802DF7D3641CE4B2082C2C
:101AF000E4D370BD10B50021AE2000F0DBF800216A
:101B0000084600F0D7F80021102000F0D3F800219B
:101B1000402000F0CFF80021812000F0CBF8002118
:101B2000CF2000F0C7F80021A12000F0C3F8002169
:101B3000C82000F0BFF80021A62000F0BBF800216B
:101B4000A82000F0B7F800213F2000F0B3F80021F2
:101B5000D32000F0AFF80021084600F0ABF80021D8
:101B6000D52000F0A7F80021802000F0A3F8002184
:101B7000D92000F09FF80021F12000F09BF800210F
:101B8000DA2000F097F80021122000F093F80021ED
:101B9000DB2000F08FF80021402000F08BF80021BE
:101BA000202000F087F80021022000F083F80021B7
:101BB0008D2000F07FF80021142000F07BF8002138
:101BC000A42000F077F80021A62000F073F800218F
:101BD000AF2000F06FF80021AF2000F06BF8FFF7A6
:101BE0006BFF0021BDE810400846AFF3008010B540
:101BF0000446B031C8B2002100F05CF8102040EA81
:101C00001410002100F056F804F00F00BDE8104059
:101C100040F00100002100F04DB800002DE9F04136
:101C2000203A00240D468046D7B27F2803D90020F1
:101C30008D1C8046EDB22946FFF7D9FF0F4E00BF3D
:101C400004EB07100121305C00F034F8641CE4B2AE
:101C5000082CF5D36D1CE9B24046FFF7C8FF0024FD
:101C600004EB071030440121007A00F023F8641CD3
:101C7000E4B2082CF4D3BDE8F0810000B86000089D
:101C80002DE9F04117460E46044600250CE031468A
:101C90002046FFF7C3FF0834E4B2782C02D90024B1
:101CA000B61CF6B26D1CEDB27A5D002AEFD1BDE82C
:101CB000F0810000084A30B41268012A0AD1074CAA
:101CC000034609B1402200E00022204630BC7821C2
:101CD000FFF7F4BD30BC704768010020005400409D
:101CE0002DE9F0410E46074615461C46002102F03C
:101CF00097FE3146384602F0A4FE2146284602F0FF
:101D00008FFE204602F026FDC0B2012825D1002119
:101D1000384602F096FE204602F01CFD10F0FF0F40
:101D20001BD10021284602F07BFE2146284602F006
:101D300088FE3146384602F073FE304602F00AFD56
:101D4000C0B2012809D10021284602F07AFE3046AF
:101D500002F000FD10F0FF0F02D00020BDE8F0817E
:101D60000120FBE72DE9F84F4FF01008ADF8001007
:101D70000F468DF8038003241D46924683468DF856
:101D800002406946FFF72AFC39465846FFF7ADFC8A
:101D900000260096ADF800504FF048098DF80390EA
:101DA0008DF8024069465046FFF718FC2946504618
:101DB000FFF792FC012831D139465846FFF793FCD2
:101DC00029465046FFF788FC40BB0096ADF800500E
:101DD0008DF803808DF8024069465046FFF7FEFB00
:101DE00029465046FFF781FC0096ADF800708DF84B
:101DF00003908DF8024069465846FFF7EFFB3946DD
:101E00005846FFF769FC012808D129465046FFF7DC
:101E10006AFC39465846FFF75FFC10B10020BDE868
:101E2000F88F0120FBE77047044A0029D16901D0EF
:101E3000014300E08143D16170470000001002407F
:101E4000044A0029116901D0014300E08143116176
:101E50007047000000100240044A0029916901D037
:101E6000014300E08143916170470000001002408F
:101E7000044A0029D16801D0014300E08143D160C8
:101E8000704700000010024030B5224A5168224BD2
:101E900011F00C0103D0042903D0082903D00360FA
:101EA00016E01E4913E05168536801F470114FF0B9
:101EB000020413F4803F04EB914104D053689B0368
:101EC00003D5154B02E0164B00E0144B594301605B
:101ED00051680F2303EA1111124B5C5C0168E14069
:101EE00041605468072505EA14241C5D21FA04F4B6
:101EF0008460546805EAD4241B5DD940C1605268EF
:101F0000032303EA9232074B1B1F9A5CB1FBF2F1E9
:101F1000016130BD0010024000127A000024F4007C
:101F200000093D00A00000207CB5002000908DF845
:101F30000400FE20184C8DF8000001236A46802121
:101F4000204603F037F842F22831491E89B2FCD20C
:101F5000E7258DF8005001236A468021204603F0D2
:101F600029F8012301AA8021204602F07BFF0223E9
:101F7000E62280212046FFF7A1FC8DF800500123C6
:101F80006A468021204603F015F8012301AA80212A
:101F9000204602F067FF7CBD005400402DE9FC4163
:101FA00006460020019005460090F5201E4F8DF852
:101FB0000400012301AA8021384602F0FBFF4FF6FE
:101FC000FD742046401E80B2FCD203236A46802165
:101FD000384602F047FF60B1142D07D913A1002045
:101FE00000F090FE4FF0FF30BDE8FC816D1CEDB2BB
:101FF000E7E79DF8010020F003008DF80100BDF82F
:10200000000040BAFEF745FBFEF7D7FB0E4A0F4B28
:10201000FEF73EFA00220E4BFEF734FAFEF7F8FB0D
:1020200030600020E0E70000005400405348543284
:10203000305F726561645F74656D2074696D6520E1
:102040006F757420303300007644CF7701405F3FD6
:10205000000018402DE9FC4106460020019005468D
:102060000090F3201D4F8DF80400012301AA802168
:10207000384602F09FFF4FF6FD742046401E80B2A6
:10208000FCD203236A468021384602F0EBFE58B1A9
:10209000142D06D912A000F035FE4FF0FF30BDE838
:1020A000FC816D1CEDB2E8E79DF8010020F0030013
:1020B0008DF80100BDF8000040BAFEF7EAFAFEF71D
:1020C0007CFB0E4A0E4BFEF7E3F90E4A0E4BFEF771
:1020D000D9F9FEF79DFB30600020E0E70054004096
:1020E00053485432305F726561645F74656D20746B
:1020F000696D65206F75742030330000619FC6DE06
:1021000007F7653FCDCCCCCCCC6C4740034A118857
:1021100021F0380101431180704700000030014078
:102120000029018802D041F0400101E021F0400186
:1021300001807047F0B5294E87B0304600F052F864
:102140000021ADF800104FF48270ADF80200ADF838
:1021500008107015ADF80A001024ADF80410ADF8A1
:102160000C400720ADF80610ADF80E10ADF81000C9
:102170006946304600F067F8A020ADF8140018203A
:102180008DF81700164F03258DF8165005A938460F
:10219000FFF724FA4020ADF8140048208DF817000E
:1021A00005A93846FFF71AFAADF814408DF8174024
:1021B0008DF8165005A93846FFF710FA0021304671
:1021C00000F05DF801213046FFF7AAFF10213846E4
:1021D000FFF78BFA07B00020F0BD0000003001408F
:1021E00000080140114910B588420AD18414012128
:1021F0002046FFF73DFE2046BDE810400021FFF7D6
:1022000037BE0B49884202D10121041404E0094978
:1022100088420AD10121C4132046FFF711FE20464F
:10222000BDE810400021FFF70BBE10BD003001409B
:1022300000380040003C00400246002012890A425B
:1022400000D00120704730B502884C8802F4415319
:102250000A88CD8822438C882C4322430C89224350
:102260004C8922438C892243CC8922431A43028021
:10227000828B22F400628283098A018230BD0029A8
:10228000818802D041F0040101E021F00401818045
:10229000704700007CB50E46044630492F4808318F
:1022A00050F8240051F82410084340F001000121A7
:1022B000FFF7D2FD29480838F4B350F82400012173
:1022C000FFF7B2FD18208DF8030024486946203836
:1022D00030F81400ADF8000003208DF8020020480B
:1022E00050F82400FFF77AF904208DF803001B480A
:1022F00069461C3830F81400ADF800001848083062
:1023000050F82400FFF76AF9154D3146083D55F89D
:10231000240000F08BFC4FF44070FFF7A5FB252054
:102320008DF8040037208DF8060001208DF8070095
:1023300001A8FFF767FB00E00BE0012240F2255106
:10234000084800F05AFC55F82400012100F025FC53
:102350007CBD00680121FFF77FFDB3E7286000081E
:10236000D4000020003801407047000001490020DF
:1023700008707047350300200CB5002126480191F4
:102380000091026842F4803202604FF4A063026858
:1023900002F400320092019A521C0192009A12B982
:1023A000019A9A42F3D10268920333D50121009138
:1023B0001A490A6842F010020A600A6822F0030211
:1023C0000A600A6842F002020A604168416041689E
:1023D0004160416841F480614160416821F47C11B1
:1023E0004160416841F4F8114160016841F0807139
:1023F000016001688901FCD5416821F00301416059
:10240000416841F0020141604168C1F38101022944
:10241000FAD10CBD00910CBD00100240002002401A
:1024200005490020054A097802E0535C491C18441C
:102430000129FADB70470000330300203503002038
:1024400070B50F484FF47A710068B0FBF1F0B0F14D
:10245000807F14D220F07F404FF0E024401E606166
:1024600065170F212846FFF709FB0020A061072010
:10247000206105212846FFF701FB002070BDFEE723
:10248000B000002002484168491C416070470000CC
:10249000000000200F4810B5016841F00101016003
:1024A00041680D4A1140416001680C4A11400160C9
:1024B000016821F480210160416821F4FE0141603E
:1024C0004FF41F018160FFF757FF05494FF000608F
:1024D000086010BD001002400000FFF8FFFFF6FE8C
:1024E00008ED00E00026DFF8FCB3FF4DFF4C374657
:1024F000B146B2469BF800000028FBD0012F35D131
:10250000DFF8EC83022147464046FFF7ECF8042150
:102510003846FFF7E8F800F001FA6078A178002764
:10252000884223D0F1492278A4318A70C8700022F1
:102530000D2002F0E0FB00210D2002F0EDFB002059
:1025400002F03AFB02F010FFE06005E002F00CFF41
:10255000E168401AC8286FD800210F2002F0EFF977
:102560000006F3D504214046FFF7BFF86078A17854
:10257000884275D1FFF754FF002862D1E67857E012
:10258000DA48D046B130014680F802A0C670002279
:102590000D2002F0B0FB00210D2002F0BDFB022057
:1025A00002F00AFB02F0E0FEE06005E002F0DCFE73
:1025B000E168401AC828CED800210F2002F0BFF9E8
:1025C0002842A060F2D0208940042AD54FF48142ED
:1025D00000210F2002F061FB0021102002F0AFF972
:1025E00000F07F01182903DC0022C24802F0DBF969
:1025F000C048414680F80280C278B24216D1C1700C
:10260000BA4990460A22CB31FDF7C9FD70B9B748E7
:102610000122401D042100F80820B548FFF765F8A5
:1026200004E0B54A00210F2002F037FB761CF6B219
:10263000002EA5D0E67802E0E5E0761CF6B2002E8A
:10264000FBD0B9F1000F61D1FFF7EAFE00287DD081
:10265000DFF8988208F1050888F800A0E67893E092
:10266000BEE000BF18F80600012870D1962002F0E5
:102670005AFA40F68C2002F06DFA9C490022BE31D5
:102680000D2081F802A0CE7002F035FB00210D2054
:1026900002F042FB022002F08FFA00210F2002F02C
:1026A0004EF92842A060F8D02089400463D5022169
:1026B0008F48FFF71AF84FF4814200210F2002F0F3
:1026C000ECFA0021102002F03AF900F07F011829FD
:1026D00003DC0022874802F066F98648514680F8FC
:1026E00002A0C278B2424DD1C17008218048FEF7E5
:1026F000FCFF7E490A22D8317E48FDF750FD30BBF1
:1027000009F10100C0B25FEA000961D043F2BC40A8
:1027100002F020FA002002F05BF900210F2002F005
:102720000EF92842A060F8D02089400440D54FF42B
:10273000804200210F2002F0B0FA0021102002F0A8
:10274000FEF840B2B0F5806F07DC01E02FE019E041
:1027500081B20022674802F026F9664863490A22DE
:1027600080F802A090F8038080F803A0A431FDF760
:1027700016FD68B12CE008F806A05F4A00210F2082
:1027800002F08BFA761CF6B2002E3FF46BAF1FE01E
:102790005648401D10F80810012919D100F808A06A
:1027A000B9F1000F14D0A9F1010000F0FF090FE00A
:1027B000B9F1000F07D04D49A9F10100491D00F002
:1027C000FF0901F806A04C4A00210F2002F065FA2B
:1027D000FFF726FE00287FF48DAE0127814689E6AB
:1027E000002002F0B7F9002002F0F2F802F0BCFD80
:1027F000A046E06009E000BF02F0B6FDD8F80C107A
:10280000401AC82801D9FFF749F900210F2002F02A
:1028100096F82842C8F80800EED0B8F8080040043E
:1028200071D54FF4814200210F2002F036FA0021C9
:10283000102002F084F840B2B0F5806F04DC81B261
:1028400000222C4802F0AFF82A49504681F802A035
:10285000CA7898F801309A42C1D1C87023490A2237
:10286000B1312448FDF79BFCB8B9204898F8001016
:10287000CB300022817098F80110C17001460D2004
:1028800002F039FA00210D2002F046FA002002F091
:1028900093F904211648FEF728FF14490A22BE3195
:1028A0001448FDF77CFC002899D1104898F80010D6
:1028B000D8300022817098F80110C17001460D20B7
:1028C00002F019FA00210D2002F026FA002002F091
:1028D00073F900210F2002F032F80006F9D5012724
:1028E00002210CE0C400002000D027243003002087
:1028F00000080140B40C00200090272403E00548A4
:10290000FEF7F3FEF6E5044A00210F2002F0C5F9B8
:10291000F0E5000000080140009027242DE9F84F61
:102920008C4C0025DFF830B2DFF83082257004F1DE
:10293000420A962002F0F7F840F68C2002F00AF9DD
:1029400021788AF8021098F800108AF8031081495B
:10295000002242310C2002F0CEF900210C2002F0BE
:10296000DBF9022002F028F9002002F031F802F031
:10297000FBFC07464FF4AF795E4604E002F0F4FC3E
:10298000C01B484506D800210F2001F0D8FF304277
:102990006060F3D002217248FEF7A7FEA0884004D1
:1029A0007ED54FF481494A4600210F2002F075F987
:1029B0000021102001F0C3FF00F07F01182903D887
:1029C0000022684801F0EFFF664898F80020C178BF
:1029D000914266D10021C17081705E490A224E3158
:1029E000FDF7DDFB00287DD102F029FAC4E90401DE
:1029F00002F012FA4FF02F62C4E90601821841F189
:102A00000000010641EA1220009002F02BF8009825
:102A100020F00100010E0002C4E908014D48D4E98C
:102A20000423673002F0D7F94A48D4E906236B3013
:102A300002F0D1F94748D4E908236F3002F0CBF90E
:102A4000444821785D300022817098F80010C170F0
:102A50000146182002F04FF90021182002F05CF91D
:102A6000032002F0A9F805E002F07EFCC01BB0F5DF
:102A7000FA7F06D800210F2001F061FF304260602C
:102A8000F2D0A088400455D54A4600210F2002F01C
:102A900004F90021102001F052FF00F07F0101E055
:102AA00048E04FE0182903D800222E4801F07BFFB0
:102AB0002C4E98F80000F178814243D10027254937
:102AC000F770B7700A2233313046FDF768FB48B91A
:102AD000B07A4FF47A714843F17A01EB810100EB4F
:102AE000410200E02BE0307B06F58A6906F20456CD
:102AF00059F820301A4449F8202056F82010491C73
:102B000046F82010A168002056F820208A420DDBEC
:102B100001F086FA002039464FEA090246F82010F3
:102B200042F82010401C2D28F8DB08E0401C2D281E
:102B3000EADB04E00C4A00210F2002F0AEF8207816
:102B4000401C20706D1CEDB22D2DFFF4F2AEBDE8DF
:102B5000F88F00000800002000D027243103002057
:102B600000080140A00400200090272410B5084C64
:102B700040F22551204600F021F8002807D02046D9
:102B800000F0AAF8BDE81040C0B201F05DB810BD79
:102B900000380140C943018070470029818902D073
:102BA00041F4005101E021F4005181817047024657
:102BB000002012880A4200D00120704730B501F091
:102BC0001F0201240025C1F3421304FA02F2012B73
:102BD0000FD0022B0FD0838A4FEA112100881342B5
:102BE00004FA01F400EA040001D000B101252846EE
:102BF00030BD8389F0E7038AEEE710B5C1F34213D5
:102C000001F01F040121A140012B07D0022B07D0A6
:102C10001430002A026805D00A4304E00C30F8E7BB
:102C20001030F6E78A43026010BD000030B504465C
:102C3000008A85B00D464CF6FF710840E9880143D3
:102C40002182A1894EF6F3100140A8882A891043F9
:102C50006A890A431043A081A08A4FF6FF410840C9
:102C6000A9890143A1826846FFF70EF919488442F9
:102C700001D1039800E00298A189090400EBC0018A
:102C800001EB0010296801D5490000E08900B0FB84
:102C9000F1F06422B0FBF2F109010B096FF01805A5
:102CA0006B4300EB8300A3891D044FF0320306D56C
:102CB00003EBC000B0FBF2F000F0070005E003EB0F
:102CC0000010B0FBF2F000F00F000843208105B0C7
:102CD00030BD0000003801408088C0F30800704714
:102CE000C1F308018180704770B50D460646002487
:102CF00003E0305D03F02CF8641CAC42F9DB70BDDE
:102D0000FEE700000FB4054B10B503A9044A029872
:102D100000F054FA10BC5DF814FB0000ED4D000803
:102D2000180400200FB47CB50C0009AD01D0611E61
:102D300000E00021CDE90001064B6A4629460898CB
:102D400000F03CFA002C02D0009A002111707CBCEB
:102D50005DF814FBC33800080FB4084B10B504A984
:102D600002AA039800F02AFA044602A9002000F003
:102D7000B3FD204610BC5DF814FB0000D9380008F4
:102D8000490050EAC12018BF04204A0D18BF40F086
:102D9000010040F2FF72B2EB515F08BF40F0020049
:102DA000012808BF05207047004870472004002014
:102DB0002DE9F0414F1E00EBC7010446D1E90001A7
:102DC00015461E4637F006020DD02A463346FDF75B
:102DD0005FFB7F1E04EBC703D3E90023FDF7B1FAC5
:102DE00037F00602F1D1022F25D0042F13D0062F81
:102DF00018BFBDE8F0812A463346FDF749FBD4E908
:102E00000A23FDF79EFA2A463346FDF741FBD4E933
:102E10000823FDF796FA2A463346FDF739FBD4E935
:102E20000623FDF78EFA2A463346FDF731FBD4E937
:102E30000423FDF786FA2A463346FDF729FBD4E939
:102E40000223FDF77EFA2A463346FDF721FBD4E93B
:102E50000023BDE8F041FDF774BA000000221346DC
:102E600010460149FDF786BB0000F03F0122FDF747
:102E7000F0BBFDF766BA0022134610461146FDF777
:102E800079BB40F2013200204FF0E041FDF7E1BB99
:102E9000024A00201107FDF7DCBB000001FDFFFF27
:102EA00002E008C8121F08C1002AFAD17047704713
:102EB000002001E001C1121F002AFBD17047000071
:102EC00001490860704700002004002038B504461E
:102ED0006D208DF800006B46012240F606012E2081
:102EE00001F0EAFE41F6060114B140F2076201E08A
:102EF00041F207622E2001F0C3FE38BD38B504460A
:102F00006B4602220021362001F030FD0E2C2CD21F
:102F1000DFE804F00F07152B2B2B2B1D392B2B442F
:102F2000494E00208DF800009DF8010000F0FE00E1
:102F300019E09DF8000000F0FC00401C04E09DF842
:102F4000000000F0FC00801C8DF800000DE09DF8F2
:102F5000000000F0B30040F048008DF800009DF83C
:102F6000010040F080008DF801006B460122002135
:102F7000362001F0A1FE0122114636200DF1010399
:102F800001F09AFE38BD9DF8000000F0B3008DF806
:102F900000009DF8010000F07F00E4E79DF80100CB
:102FA00040F00200DFE79DF8010000F0FD00DAE7E5
:102FB0009DF8000000F0CF0040F02000C4E708B505
:102FC00003208DF8010001208DF800006B460222DD
:102FD0000021362001F070FE4FF4004206212D2022
:102FE00001F04EFE012000F0F9FF0120FFF786FFFF
:102FF00008BD08B5010A8DF801108DF800006B4678
:10300000022204212D2001F057FE03208DF800003C
:103010006B46012206212D2001F04EFE00208DF886
:1030200000006B46012206212D2001F045FE0A21F9
:103030002D2001F084FC08BD2DE9FF5F82B0002146
:10304000DDE90430020DDDF840B0034318D044F64A
:103050001050A2F2FF3242431514119801281FD0DC
:10306000A5EB0B00401C5FEA000A4FF000064E4F34
:10307000DFF83891B046504615D5CAF1000413E088
:10308000119801244AA3012801D16FEA0B0102988B
:10309000119AC0E90031C0E9024206B0BDE8F09FD4
:1030A000CBF10000DFE704460021404A491842EB1B
:1030B0000450CDE9001012E0E00707D032463B464D
:1030C00040464946FDF7E4F98046894632463B468C
:1030D00010461946FDF7DCF906460F466410002C31
:1030E000EAD1DDE90401DDE90023BAF1000F06DAD7
:1030F000FDF7CEF942464B46FDF7CAF905E0FDF76C
:1031000039FA42464B46FDF735FA04460E46002290
:10311000284BFDF765FB03D84FF0FF30014607E071
:103120000022254B20463146FDF70BF9FDF72BFD1C
:10313000102409E0002C0ADB0A220023FDF7A4FB7F
:10314000039B30321A55641E50EA0102F2D1641C0E
:10315000039AC4F111031444119A012A03D00122E5
:1031600008430DD10AE0084304D000204FF0110BB2
:10317000119072E7A3EB0B056D1E0DE05B4504DDBE
:103180004FF0000205F1010504E003DA4FF0000200
:10319000A5F10105002AECD002981199C0E902318D
:1031A000C0E9004579E70000000014400000F03F4E
:1031B000300000000000F0430000E03F2DE9FF4F29
:1031C00095B09A46884606460025EEE1252877D137
:1031D00000242746F94A0121039400E0044316F82D
:1031E000013F203B01FA03F01042F7D130782A2842
:1031F00011D06FF02F033078A0F13002092A16D8D1
:10320000039A44F0020402EB820203EB42021044F0
:10321000761C0390EFE758F8042B0392002A03DA98
:10322000504244F40054039044F00204761C307879
:103230002E2816D116F8010F44F004042A280DD0C8
:103240006FF02F023078A0F13003092B09D807EB7B
:10325000870302EB4303C718761CF3E758F8047B97
:10326000761C30786C280FD006DC4C2817D06828E4
:103270000DD06A2814D104E0742810D07A280FD118
:103280000DE044F400140AE044F4801401E044F436
:1032900040147278824202D104F58014761C761CA8
:1032A000307866280BD013DC582877D009DC00284A
:1032B00075D04528F6D04628F4D047281AD193E196
:1032C00018E0632835D0642879D0652812D18BE1C5
:1032D000702873D008DC6728F1D069286FD06E2879
:1032E0000DD06F2806D1ACE073282CD0752874D08F
:1032F000782853D05246179990476D1C54E1C4F377
:103300000250022809D003280DD0D8F80010042854
:103310000DD00D6008F1040846E1D8F80010EA1756
:10332000C1E90052F6E7D8F800100D80F2E70D7001
:10333000F0E718F8041B8DF8001000208DF801004C
:10334000EB46012003E058F804BB4FF0FF30610763
:103350004FF0000102D40DE009F101018946B942A4
:103360000FDA8145F8DB1BF809100029F4D108E0D9
:1033700009F1010189468142FADB1BF80910002995
:10338000F6D103985346A0EB090721463846179A11
:1033900000F080FA284400EB090507E044E008E16A
:1033A0000DE01BF8010B524617999047B9F101093E
:1033B000F7D2534621463846179AF2E039E00A21FF
:1033C000C4F302524FF0000B0091022A06D058F8C5
:1033D000040BC117032A09D00AE023E008F1070013
:1033E00020F00702F2E80201904605E000B2C117A2
:1033F000042A01D140B2C117002906DA0A46002189
:10340000404261EB02012D2202E0220504D52B226D
:103410008DF80420012203E0E20701D02022F7E723
:10342000914657E00A2100E010214FF0000B009177
:103430000BE010214FF0000B44F00404082700912A
:1034400003E008204FF0000B0090C4F30252022A60
:1034500005D058F8040B0021032A08D008E008F131
:10346000070020F00702F2E80201904603E080B274
:10347000042A00D1C0B24FF0000922072AD53278C1
:10348000702A07D0DDF800C08CF0100C5CEA0B0C41
:1034900005D00EE040228DF80420012208E050EA19
:1034A000010306D030238DF804308DF80520022268
:1034B0009146009B83F0080353EA0B030AD150EABC
:1034C000010201D1620705D530228DF804204FF0AA
:1034D00001097F1E3278582A04D039A20C920CAA16
:1034E00002920BE03BA2F9E75B46009AFDF7CCF9AC
:1034F0000C9B9B5C029A521E0292137050EA0102CE
:10350000F2D1029804A9081A00F1200B600702D535
:1035100024F4803400E001275F4502DDA7EB0B00B7
:1035200000E0002000EB0B01009003984944401A92
:103530000390E00306D453462146179A039800F0FF
:10354000A9F90544002706E001A85246C05D179975
:1035500090476D1C7F1C4F45F6DBE0030CD55346AE
:103560002146179A039800F095F9054404E03020AD
:103570005246179990476D1C0099481E00900029EB
:10358000F5DC08E00298029952460078491C029145
:10359000179990476D1CBBF10001ABF1010BF1DCF9
:1035A0005BE100F065F90544761C307800287FF473
:1035B0000DAE19B02846BDE8F08F000009280100C3
:1035C0003031323334353637383961626364656699
:1035D000000000003031323334353637383941425B
:1035E0004344454600000000600700D4062708F168
:1035F000070020F00700F0E80223804603F0004CAB
:103600005FEA0C0001D097A009E0200501D596A043
:1036100005E0E00701D095A001E0AFF24C00139067
:10362000307823F0004365280CD006DC452809D00B
:1036300046281DD047287FD13BE0662818D0672850
:103640007AD136E00021112F01DB112000E0781C37
:10365000CDE9000104A90CA8FFF7EEFCDDE90D019E
:103660000C9A4FF0000B07F10109109200914EE007
:103670004FF000400097CDE9011004A90CA8FFF716
:10368000DBFCDDE90D020C9B0F994FF0000B91461E
:103690001093009211B9791C00EB0109B7EB0900F6
:1036A00003D4C0F1FF3B07F10109A9EB070001902A
:1036B00042E0012F00DA01270021112F01DD112046
:1036C00000E03846CDE9000104A90CA8FFF7B4FCDE
:1036D000DDE90D010C9A00914FF0000BB9461092F4
:1036E00021070FD4009A4A4503DA914601E0A9F177
:1036F0000109B9F1010F05DD109AA9F10101515C31
:103700003029F4D0B84202DA10F1040F03DA0121B3
:10371000CDE9011010E0002803DC8344A9EB00018F
:1037200002E0411C494500DD8946A0EB0B00401C2E
:1037300001904FF000400290200705D401984845C1
:1037400002DB4FF0FF30019000208DF84B00029813
:103750000DF14B07B0F1004F25D002200C902B202B
:103760000D90029800280CDA404202902D200D9016
:1037700007E00A210298FDF771F83031029007F84E
:10378000011D0C99481E0C900029F2DC02980028BB
:10379000EFD1791E0D980870307800F0200040F0CD
:1037A000450007F8020D11A8C01BC01D0290139818
:1037B000007800B1012000EB0901019801EBE071F4
:1037C000029801440398401A401E0390E00306D477
:1037D00053462146179A039800F05CF80544139865
:1037E000007818B15246179990476D1CE00323D515
:1037F00053462146179A039800F04CF805441BE005
:10380000BBF1000F07DB0098584504DD10981799AD
:1038100010F80B0001E017993020524690470198AC
:103820000BF1010B401E05F10105019004D12E2082
:103830005246179990476D1CB9F10001A9F1010991
:10384000DEDC05E017F8010B5246179990476D1C16
:103850000299481E02900029F4DC53462146179A2B
:1038600003989EE62D0000002B00000020000000C1
:103870002DE9F041044600251E461746880404D46D
:1038800005E039462020B0476D1C641EF9D5284656
:10389000BDE8F0812DE9F041044600251E46904622
:1038A000C80301D5302700E02027880404D505E0AF
:1038B00041463846B0476D1C641EF9D52846BDE820
:1038C000F0814A68002A06D00A68531C0B60107009
:1038D0004868401E486070470A68531C0B601070AF
:1038E000704700002DE9F04D8D4F21F0004A86B061
:1038F00005460C46BA452ADBAAEB070028430AD046
:103900008848824501DC1AD1CDB106B02846BDE811
:10391000F04DFFF7ABBA844A844B2846FCF7B8FD5C
:1039200007460E46824A834B28462146FCF7B0FDE7
:1039300006B03A463346BDE8F04DFCF702BD012023
:10394000FFF7BEFA06B0BDE8F04DFFF794BA7A482B
:10395000824542DABAF1795F0BDA2846FFF710FAAE
:10396000042808BFFFF794FA284606B02146BDE8B0
:10397000F08D2A460B461046FCF78AFD8346024628
:103980006E480E460B4606217844FFF711FA5A4658
:103990003346FCF77DFD804669488A465A463346E1
:1039A00004217844FFF704FA5A463346FCF770FDC9
:1039B00000223B46FCF7C5FC02460B4640465146FA
:1039C000FCF7D8FD2A462346FCF762FD06B02A46DE
:1039D0002346BDE8F04DFCF7B4BC284624F0004176
:1039E00000223D463B46FCF750FD4FF0FF32FCF70E
:1039F00030FE0646024653480F460B4606217844E1
:103A0000FFF7D6F932463B46FCF742FDCDE900010F
:103A10004D4832463B4604217844FFF7C9F9324607
:103A20003B46FCF735FD00222B46FCF78AFC83461B
:103A300002913046394602F067FA804643480D4607
:103A4000504517DCDDE900015A46029BFCF792FD68
:103A500042462B46FCF71CFD42462B46FCF771FC08
:103A60000122FCF7F6FD304A304BFCF70BFD304AE3
:103A7000304B4CE04FF0000A52460B464046FCF7F4
:103A800060FCCDE9031052462B4610461946FCF760
:103A9000FFFC32463B46FCF7F8FCDDE90332FCF75D
:103AA00069FD06460F46DDE900015A46029BFCF718
:103AB00061FD83460091012230463946FCF7C9FD7D
:103AC000194A1A4BFCF7E1FC06460F460122404614
:103AD0002946FCF7BEFD5A46009BFCF7D9FC32464E
:103AE0003B46FCF7CFFC06460F46012250462946CE
:103AF000FCF7AFFD0E4DDFF858802A464346FCF731
:103B0000C4FC32463B46FCF7C0FC2A464346FCF761
:103B1000BCFC002CD8BF81F0004106B0BDE8F08DA0
:103B20000000F03F0000F07F075C143326A6913CB4
:103B3000182D4454FB21F93F0000E03FD42F000032
:103B4000EA2F00005E2F0000742F00003333EF3F98
:103B5000FB21E93F2DE9F047ADF57C7D8A468146A2
:103B60004FF0FF354FF0FA0800244FF47A7101A8A6
:103B7000FCF7F1FA2DA14846FCF7F8FAB0B32C4E49
:103B8000484656F83410FCF7F1FA070011D056F801
:103B90003400FCF7FDFA3844A0EB09018AB20A2C84
:103BA00041D201783F2908D00D2914D03D291ED0DB
:103BB00039E0641C0A2CE3D335E041780D2932D179
:103BC00080780A282FD106EBC400436873B101AA9C
:103BD000414601201BE040780A2824D106EBC400AE
:103BE00043681BB101AA4146022010E01BE0AAEB8A
:103BF000020101AB2C22401CCDF8008002F0AAF992
:103C0000014606EBC40043686BB101AA0320984744
:103C10000546401C07D007A0FFF774F80DF57C7D22
:103C20002846BDE8F08705A0F6E7000041540000F3
:103C3000140100200D0A4F4B0D0A00000D0A4552D9
:103C4000524F520D0A0000002DE9F04106464FF098
:103C5000FF3701F089FB154C00256168401AC82820
:103C600003D86088B0F5007F01D36580657001F0EE
:103C70007BFB60600E4960880E54401C81B26180FD
:103C80000A2E02D00D2E0DD008E06078012805D153
:103C90000748FFF75FFF6570074665806570384627
:103CA000BDE8F08101206070F9E70000C400002049
:103CB000580A002070B501210820FEF7CDF8012137
:103CC0000846FEF7C9F801213048FDF7D9FC304C11
:103CD0004FF400735D10204622462946FEF742F855
:103CE00010F0FF0F42D02BA0FFF70CF8EE01294691
:103CF0002D4D334622462846FEF734F810F0FF0FCC
:103D000036D02AA0FEF7FEFFE31420462246022109
:103D1000FEF728F810F0FF0F2CD029A0FEF7F2FFD5
:103D20002315224608212846FEF71CF810F0FF0F45
:103D300022D028A0FEF7E6FF2023204622460821B5
:103D4000FEF710F810F0FF0F18D027A0FEF7DAFFEB
:103D50001023224631462846FEF704F810F0FF0FE4
:103D60000ED026A0FEF7CEFF012070BD28A008E0EF
:103D70002BA006E02FA004E033A002E037A000E073
:103D80003AA0FEF7BFFF002070BD00000002300027
:103D9000000C01405042382D504239207375636346
:103DA0006573730D0A000000000801405041382D72
:103DB0005042313520737563636573730D0A0000DB
:103DC0005042312D504231312073756363657373F6
:103DD0000D0A00005041332D50423130207375637D
:103DE000636573730D0A00005042332D5042352035
:103DF000737563636573730D0A00000050413135BC
:103E00002D50423420737563636573730D0A00008F
:103E1000205042382D504239206661696C0D0A00ED
:103E2000205041382D50423135206661696C0D0AB1
:103E300000000000205042312D5042313120666197
:103E4000696C0D0A00000000205041332D504231B2
:103E500030206661696C0D0A00000000205042337A
:103E60002D504235206661696C0D0A0020504131A9
:103E7000352D504234206661696C0D0A0000000047
:103E800010B500F0F5FB00F000FC4FF480631A0160
:103E900091110801FDF724FF10F0FF0F11D00CA0C5
:103EA000FEF730FF4FF400631A0191110801FDF78E
:103EB00017FF10F0FF0F06D0BDE8104009A0FEF775
:103EC00021BF0DA000E010A0FEF71CFF002010BDD8
:103ED000494F20342D3620737563636573730D0A63
:103EE00000000000494F20352D372073756363654E
:103EF00073730D0A00000000494F20342D362066F0
:103F000061696C0D0A000000494F20352D3720668D
:103F100061696C0D0A0000002DE9F0412D4E01236E
:103F20006D24F3723346B4465C7334467223A37334
:103F30000223E373284BB6461F782346753C1F7453
:103F4000A5895D742B0A8CF812300A2390FBF3FCD0
:103F50008EF813C090FBF3FC4FEA1C2C8EF814C0B3
:103F600091FBF3FC91FBF3F18EF815C0B446090AFE
:103F70008CF8161092FBF3F18CF8171092FBF3F10A
:103F80003246090A117690FBF3F190FBF3F051767B
:103F9000000A907610460D21C37601771146102055
:103FA0000873B570F77000221F2000F0A4FE0021F6
:103FB0001F2000F0B1FE002000F0FEFD00210F20C8
:103FC00000F0BDFC0006F9D5E068401CE060BDE8EB
:103FD000F08100007D0000203103002010B5044670
:103FE00001F0C2F904EB000401F0BEF9001B002847
:103FF000FADD10BD002805D04FF0E0214FF400009D
:10400000C1F80001704710B51720FDF75FF90028CF
:1040100005D04FF0E0224FF40001C2F8801110BD2E
:104020002DE9FC41454E0024A6F1B40556F82400C4
:10403000002808DD55F8241091FBF0F0214600F02F
:1040400091FE45F82400641C2D2CEFDB95E8070059
:10405000FFF762FF3A4F002456F82400002813DDD2
:1040600055F82400FCF70CFB3946FCF72CF9FCF75B
:10407000A4FBCDE90001224632A13548FEF76CFED3
:10408000334934A0FEF73EFE641C2D2CE4DB30687F
:10409000002817DD2868FCF7F3FA3946FCF713F916
:1040A000FCF78BFB02460B462CA12948FEF754FE79
:1040B0002DA202210020FDF7E3FD254A0221002068
:1040C000FDF7DEFD7068002817DD6868FCF7D8FA98
:1040D0003946FCF7F8F8FCF770FB02460B4624A1C2
:1040E0001B48FEF739FE25A204210020FDF7C8FD7C
:1040F000174A04210020FDF7C3FDB06800281ADD2F
:10410000A868FCF7BDFA3946FCF7DDF8FCF755FB6B
:1041100002460B4612A10E48FEF71EFE17A206210C
:104120000020FDF7ADFD02B00621BDE8F041084AD0
:104130000020FDF7A5BDBDE8FC810000A40900201A
:1041400000007A44616E25643A25332E32666D0094
:10415000A40C002025730D0A00000000616E303AA7
:1041600025332E32666D0000200909202020000032
:10417000616E313A25332E32666D00000909200048
:104180002DE9FC5F82460020009004466D460190B8
:1041900004F128002919C0B200F0B2F8641CE4B29E
:1041A000062CF5D3BDF900000011FCF769FA0646AC
:1041B000BDF902000011FCF763FA0446BDF90400E2
:1041C0000011FCF75DFA05463046FCF7F6FA0246A8
:1041D0000B463EA0FEF796FD2046FCF7EEFA02469F
:1041E0000B463DA0FEF78EFD2846FCF7E6FA024698
:1041F0000B463CA0FEF786FD3046FCF781FA00280E
:1042000000DA4042FCF73CFA83462046FCF778FA95
:10421000002800DA4042FCF733FA04462846FCF74F
:104220006FFA002800DA4042FCF72AFA8146FCF7D0
:10423000C4FA4FF080480022434601F09BF805463F
:104240000E462046FCF7B9FA0022434601F092F8E8
:1042500007460C465846FCF7B0FA0022434601F0E8
:1042600089F83A462346FCF76CF82A463346FCF7B1
:1042700068F801F049FEFCF7CBFA044601464846CF
:10428000FCF7E2FA00D2A14621464846FCF71BF8AB
:10429000FCF793FAFFF726FB0122FCF7DAF9144A40
:1042A000144BFCF767F90022134BFCF7F1F8FCF70D
:1042B000AFFA01461148FCF700F810F1FF4F00D3A8
:1042C0000020CAF800000020BDE8FC9F6163635F26
:1042D000783A25660D0A00006163635F793A2566C6
:1042E0000D0A00006163635F7A3A25660D0A0000DB
:1042F0001F85EB51B81E0940008056400000B442B3
:104300002DE9F047384E0F46814632254FF40034F0
:1043100021463046FDF746FA0028F9D10121304602
:10432000FDF72CFA314C30462146FDF73BFA0028C8
:10433000F9D0002229463046FDF7B6FADFF8B08002
:1043400030464146FDF7EEF90028F9D0494630469F
:10435000FDF7B2FADFF8988008F1020841463046CE
:10436000FDF7E0F90028F9D001213046FDF706FA03
:1043700021463046FDF716FA0028F9D001222946D9
:104380003046FDF791FA1B4C30462146FDF7CAF93D
:104390000028F9D0174C3E3421463046FDF7C2F9CB
:1043A0000028F9D03046FDF77CFA04464FF2FF7141
:1043B0003046FDF76BFA00213046FDF7A9F90121DF
:1043C0003046FDF7E5F9094D0F3529463046FDF732
:1043D000E9F90028F9D100213046FDF799F93C7040
:1043E0000020BDE8F08700000054004001000010EC
:1043F000820007000200030010B50B46024632217E
:104400000248FDF75BFA002010BD00000054004098
:1044100010B537212020FFF7EFFF03212120FFF700
:10442000EBFFC0212220FFF7E7FF88212320FFF7C1
:10443000E3FF7F213020FFF7DFFF02213220FFF76B
:10444000DBFF03213320FFF7D7FF5F21BDE81040DA
:104450002020FFF7D1BF00002DE9F84F0446057872
:10446000407978494FF00009C84631F810706178FA
:104470007548491ECEB20163042D75D0072D73D047
:1044800000218A46217801736F49E2798969002AFF
:104490006CD021F480018161217A4173217A4FF43B
:1044A0004033826903EA01410A4383468261002165
:1044B000042000F0F2FB3A4642F604012E2000F000
:1044C000DFFB3046FEF702FD604F61490522785D53
:1044D00000EB8000431807212B2000F0EDFB5D4925
:1044E000012201EB0A030B21282000F0E5FB785D97
:1044F000594951F820200C21282000F0CEFBE0790A
:10450000564901EB8000A17930F8112002212720C3
:1045100000F0B6FB5248042130F81620272000F0A6
:10452000AFFBE07938B3A07804282AD028208DF892
:10453000000020220621272000F0A2FB6B4601226A
:104540002621272000F0B8FB4648E17800EB061052
:1045500050F821200821272000F09FFBB4F8090023
:10456000A0B117E000E001E001218AE741F48001F9
:10457000FF08816190E764220621272000F080FB7C
:10458000E2E710208DF800000246D3E741F2410037
:10459000A4F80900B4F809202021272000F070FBBE
:1045A000314F0C2123203A6800F077FB07EB4600DF
:1045B00004218288232000F063FBA07958B1E079C0
:1045C0002A49012243180021212000F075FB4FF0F9
:1045D00003094FF0010805F00F00290740EA1160B8
:1045E00061784FF4402202EA81410843920002EAD6
:1045F000095108434FF4003202EA48410843217947
:104600004FF0F86202EA81510843617940EAC162E1
:1046100000211F2000F041FBA07861784FF4004397
:1046200008430204CBF81020E179082043EA413125
:104630000A430021CBF8102000F02FFB0020BDE83A
:10464000F88F000024670008680C0020A8660008A6
:10465000C8660008E6660008B0660008F466000850
:104660000067000804670008E8660008F0660008B4
:1046700010B50021362000F062F940F440320021EC
:10468000BDE81040362000F008BB08B56B46042298
:104690000021262000F06AF99DF800008DF8000046
:1046A0009DF801008DF801009DF802006B4620F096
:1046B000300040F010008DF802009DF803008DF8E6
:1046C000030004220021262000F0F6FA08BD10B5F0
:1046D00004460421362000F032F914B140F400629F
:1046E00001E020F400620421BDE81040362000F013
:1046F000D4BA000038B540208DF8000000210E200B
:1047000000F01DF90446FFF77EFC05460022114625
:104710000E2000F0C2FA6B46012200210D2000F0AD
:10472000CBFA0A4A00210F2000F0B7FA00F08EFA07
:10473000224600210E2000F0B0FA2846FFF75AFC6E
:104740000349002081F82C0038BD0000F8FF272421
:10475000680C002010B504462821262000F0EFF850
:10476000204000D0012010BD70B50546164600243B
:104770000846FCF722F80222FBF76BFFFBF7D9FF94
:10478000FF2800DDFF202A49012EA1F108020CD0EC
:10479000042D2DD0072D2BD0515D01EB810202EBB2
:1047A000C101244A02EB410133E0042D0AD0072D58
:1047B00008D0515D01EB810202EB41111C4A083225
:1047C00011440FE0495D1B4A01EB0111883A02EBED
:1047D000810100E0641C0A5D8242FBDBA4F11C0045
:1047E0001CE0641C0A5D8242FBDBA4F1170015E0AB
:1047F000495D01EB8102C2EB81110E4A683211441E
:1048000000E0641C0A5D8242FBDBA4F11E0005E0AF
:10481000641C0A5D8242FBDBA4F11100FBF730FF50
:10482000FBF7CBFFBDE87040034A044BFBF730BEFB
:104830005E670008826800087B14AE47E17A843F17
:104840007CB50546324C04208DF8000000216175CE
:10485000216384F8251084F82C10A1836163A1637F
:1048600000F080F82B492060884201D088177CBD79
:104870000020FEF743FB6B4601220021242000F0BC
:104880001BFA1E20FEF7B5FB86B2300AA073042087
:10489000FEF7AFFB10F0FF0F0CD002208DF80400E4
:1048A00001AB012212212D2000F006FAA08B40F46A
:1048B0008050A0830620FEF79CFB60600720FEF777
:1048C00098FBA06016F01F00207501D11020207504
:1048D000C0B200F02FFAE80706D0FEF770FBA08BFD
:1048E00040F40060A08309E00521362000F014F8B0
:1048F00020F400720521362000F0C2F90120FEF7F5
:10490000FDFA0021042000F01AF8A06100207CBD0F
:10491000680C00203001CADE38B54FF6FF7489B24A
:1049200080B26B46022200F021F830B99DF80000F9
:104930009DF8011000EB012084B2204638BD38B547
:104940004FF0FF3489B280B26B46042200F00EF8BB
:1049500030B903216846425C491E02EB0424FAD5B3
:10496000204638BD00210846FFF7E9BF08B551B120
:1049700040F040008DF80000C8B27F2907D88DF8BC
:10498000010002200BE08DF80000012007E040F05C
:1049900080008DF80100C8098DF8020003206946E7
:1049A00001F0DCF908BD30B414460A46214603463E
:1049B00030BC1120FFF7DABF034605220021152085
:1049C000FFF7D4BF0346052200211720FFF7CEBF13
:1049D00038B5054600208DF8000000F037F94FF497
:1049E000807422460DB14FF4407200210D2000F07A
:1049F00047F99DB16B46012203210F20FFF7B6FF57
:104A00009DF80000000709D5FFF774FE224600213B
:104A10000D2000F035F94FF0FF3038BD002038BDD3
:104A200008B501438DF80010080A8DF80100080C44
:104A30008DF802006B4603220821262000F03CF985
:104A400008BD08B501438DF80010080A8DF8010073
:104A5000080C8DF802006B4603220C21262000F082
:104A60002BF908BD024601210A2000F016B938B51D
:104A70000446C0076B464FF002024FF000014FF0B2
:104A800026002DD0FFF772FF9DF80100012220F0D3
:104A90003C0040F014008DF80100114626200DF175
:104AA000010300F009F96B46012202213620FFF7CD
:104AB0005DFF9DF800006B4640F084008DF800001B
:104AC00001220221362000F0F7F810208DF80000B6
:104AD00001208DF80100022228216B4636200BE0D0
:104AE000FFF744FF9DF801006B4620F014008DF89D
:104AF000010002220021262000F0DEF8A00711D5D7
:104B00000F208DF800006B4601222A21362000F08C
:104B1000D3F800208DF800006B4601222A213620B0
:104B200000F0CAF838BD10B5044600211A20FFF77E
:104B300006FFC4F313026FF3130002430021BDE824
:104B400010401A2000F0A9B8024641F604012E20B8
:104B500000F096B838B505466B46012203210420C3
:104B6000FFF704FF104C75B12A4600210C2000F01D
:104B700087F89DF8000040F010008DF80000A06953
:104B800040F0805008E09DF8000020F010008DF803
:104B90000000A06920F08050A0616B460122032133
:104BA000042000F089F838BD680C0020024600217E
:104BB000182000F065B80000F8B500240546224F23
:104BC00026468DF8004080070BD580208DF8000028
:104BD0006B46012200210D2000F06EF8012087F8BD
:104BE0002C00E8079DF8000021D040F006008DF869
:104BF00000006B46012200210D2000F05DF803212A
:104C00000F20FFF789FE10F4816F1AD040208DF835
:104C100000006B46012200210D2000F04DF800201D
:104C2000FFF755FD87F82C604FF0FF3409E040F0A6
:104C300002008DF800006B46012200210D2000F0DB
:104C40003BF82046F8BD0000680C00201CB56B4600
:104C5000012203210F20FFF789FE9DF8000000F0DC
:104C6000800100F04000B1EB400F08D001208DF82A
:104C70000400024601AB03210D2000F01DF81CBD0D
:104C800008B589B28DF80020120A8DF8012080B293
:104C90006B46022200F010F808BD38B500236C46C0
:104CA000E254120A5B1C042BFADB89B280B2234661
:104CB000042200F001F838BD08B551B140F0C00041
:104CC0008DF80000C8B27F2909D88DF801000220B4
:104CD0000DE040F080008DF80000012007E040F07A
:104CE00080008DF80100C8098DF802000320694694
:104CF00001F054F908BD10B514460244B2F5806FB6
:104D000002D94FF0FF3010BD0B46821E214609200C
:104D1000FFF7D2FF002010BD054A10B5126940EA26
:104D20008150024300210820FFF7B7FF002010BD8B
:104D3000680C002038B504466B4601220E212B205A
:104D4000FFF714FE9DF8000004F01F0120F01F0083
:104D500001438DF800106B4601220E212B20FFF736
:104D6000ABFF38BDF0B50022134D052701EB8104E0
:104D7000134605EB8404002814DD643555F82160E2
:104D800044F82600761C45F82160052E02D100204B
:104D900045F8210054F82200521CD2B20344052ADF
:104DA000F8D306E054F82200521CD2B20344052A7C
:104DB000F8D393FBF7F0F0BD2804002010B50022D3
:104DC0000A60835CD400A3400C68521C23440B602F
:104DD000042AF6DB10BD10B500214254120A42EA43
:104DE00003621B0A491C0429F7DB10BD70B5094C8E
:104DF000054640212046FDF7CDFEE9B22046FDF7ED
:104E00006FFF40212046FDF7D2FE0028F9D028464A
:104E100070BD0000003801407CB50024254668467E
:104E2000FFF7CAFD042069462D0245EA14652202F7
:104E30000C5C1443401EF7D5204629467CBD7CB54A
:104E4000002425466846FFF7BDFD042069462D0273
:104E500045EA146522020C5C1443401EF7D5204637
:104E600029467CBD2DE9FF5F1D4614468B464FF059
:104E7000000A64264FF4003739460098FCF792FC8C
:104E800008B1761EF8D201210098FCF777FC464F56
:104E9000642639460098FCF785FC08B9761EF8D2DE
:104EA0006426002259460098FCF7FEFCDFF8F880E3
:104EB000DFF8F89008F10F0849460098FCF732FC3B
:104EC000A8B1002E16DC01210098FCF761FC4446D5
:104ED00021460098FCF766FC0028F9D100210098D3
:104EE000FCF716FC4FF0FF3004B0BDE8F09F761ED3
:104EF000E2D2E8E7642601210098FCF73FFC39463E
:104F00000098FCF74FFC08B9761EF8D264260122FF
:104F100059460098FCF7C8FC254F00983946FCF725
:104F200001FC08B9761EF8D2DFF88490002609F15A
:104F30003E094FF4006B6D1E15E06427494600984A
:104F4000FCF7F0FB08B97F1EF8D20098FCF7A9FC2B
:104F500004F8010B59460098FCF798FC01210098D1
:104F6000FCF7D6FB761CAE42E7D30098FCF799FC21
:104F700020704FF2FF710098FCF788FC0021009828
:104F8000FCF7C6FB01210098FCF702FC44462146D1
:104F90000098FCF707FC0028F9D100210098FCF7E5
:104FA000B7FB5046A0E70000010000108200070098
:104FB000020003002DE9F0471F4616468846814649
:104FC000002542F20F740AE032784146484600F06C
:104FD0000BF82046761C401E80B2FCD26D1CBD42F0
:104FE000F2D3BDE8F08700002DE9F0410F461646E8
:104FF00080460121FCF7C2FB224D6424294640462D
:10500000FCF790FB10B9641EA4B2F7D20022394617
:105010004046FCF749FC14B91B49002008601B4DB1
:10502000642429464046FCF77DFB10B9641EA4B2F7
:10503000F7D231464046FCF73FFC144D6424AD1CCA
:1050400029464046FCF76EFB10B9641EA4B2F7D2A5
:1050500001214046FCF79CFB0D4D64242946404647
:10506000FCF7A0FB10B1641EA4B2F7D200214046A9
:10507000FCF74EFB42F22730401E80B2FCD20020EB
:10508000BDE8F081010003006801002082000700F4
:10509000100000107CB500F043F95FA0FDF732FE70
:1050A00000F09AFE00F02DFF0120FFF7C9FB401C25
:1050B00062D000F023FF5D48FFF7CEF90120FFF733
:1050C000D6FC012000F0E8FE48F2B600FFF73CFDF8
:1050D0000020FFF76BFD002155A20846FCF7D0FD2C
:1050E00056A0FDF70FFE59A0FDF70CFE6148604A7F
:1050F0005E49C0E90012614A5F49C0E9021200211D
:10510000C0E904115E4AC0E90612C0E90811C0E90D
:105110000A11C0E90C11C0E90E11C0E9101159497A
:105120000322D1E90001CDE9000169465648FCF7A8
:1051300073F9BDF800000121544C012801D000286A
:1051400036D02180BDF802005149FF2801D8608087
:10515000087009784FA0FDF7D5FDFCF775F8002120
:1051600052A20846FCF78CFD50A0FDF7CBFDFBF7E3
:10517000D3FD2088F0B14CE050A0FDF7C3FD002125
:1051800054A20846FCF77CFD554C4FF400564FF4F2
:105190007A7531462046FCF7A8FA2846FEF71EFF2E
:1051A00031462046FCF79FFA2846FEF717FFF0E746
:1051B00000202080BDF802004A4D4B4EFF2802D847
:1051C000608028703070618848A0FDF79BFD2878CA
:1051D0003178884206D1002149A20846FCF750FDEB
:1051E00047A005E000214AA20846FCF749FD48A077
:1051F000FDF788FD9620FFF796FC40F68C20FFF720
:10520000A9FC28783178884201D1FDF7AFF8FDF785
:1052100069F900207CBD000043452048656C6C6F37
:105220002064776D31303030210D0A0030000020CD
:10523000494E49542050415353000000696E69742F
:105240002070617373210D0A000000004149542D44
:10525000425530312D4442205631303020543230C6
:1052600032302D352D31370D0A000000B81E85EB88
:1052700051B8BE3FB8040020C3F5285C8FC2D53FAB
:105280000000D03F00600008000001086401002019
:10529000340300206465766963653A616E63686F04
:1052A000722049443A25640D0A00000044532054FA
:1052B000575220414E54484F5200000064776D31E0
:1052C00030303020696E6974206661696C210D0A86
:1052D00000000000494E4954204641494C0000005E
:1052E000001001403103002032030020646576691C
:1052F00063653A5441472049443A25640D0A000049
:105300004453204D4153544552205441473A0000E4
:10531000445320534C415645205441473A00000025
:1053200010B501217D20FCF797FD01210803FCF752
:1053300093FD01218803FCF777FDFCF7C5F8FDF725
:105340007FF8FCF7F7FE6420FEF748FE00F010FE41
:10535000FCF718FBFFF75CF8FCF7E6FDFCF7CAFB6F
:10536000BDE81040FCF7A8BB01480068704700008A
:10537000040000202DE9F04D1D460C4698B017465C
:1053800021F0004123F00043002814BF4FF0010C2E
:105390004FF0000C0CEB440CFE4A0CEB02064FEAFB
:1053A000620C66452BD33E0018BF012606EB45066E
:1053B0001644F94A964222D3F84A53EA070C02D01F
:1053C000944205D148B918B000201146BDE8F08DCF
:1053D000002808BF4FF0000C01D04FF0010C0CEB7F
:1053E000440212F5001F0AD8002F14BF4FF0010C21
:1053F0004FF0000C0CEB450212F5001F07D918B056
:105400003A462B462146BDE8F04DFDF732BD00225D
:10541000DFF88CA3002CB8BF534526DADFF884C32D
:105420006345A8BF022220DADFF870C39C451CDC6C
:10543000DFF874C30CEB235CBCF1140F08DDCCF176
:10544000340627FA06FC0CFA06F6BE420DD108E037
:105450005FB9CCF1140623FA06FC0CFA06F69E425C
:1054600003D10CF00102C2F1020251EA000C19D181
:10547000002D17DA002C18BF022A01D0012A07D00C
:105480000220FDF71DFD18B0BDE8F04DFDF7E6BCAC
:105490000220FDF715FDFDF7E1FC18B081F0004199
:1054A000BDE8F08DB7F1000C6CD1534525D104F166
:1054B000804212F5801201BF00280020B74918B0C1
:1054C00008BFBDE8F08DB548884207DC002DA1BFBC
:1054D0006046294618B0BDE8F08D07E0281E05DAC1
:1054E00080F0004118B06046BDE8F08DAF497944C6
:1054F000D1E9000118B0BDE8F08DDFF8A0C2634526
:1055000025D1002D1FDA19B1514512D1D8B909E0C2
:10551000002840F0EC82A24A214618B062F31E0136
:10552000BDE8F08D0020214618B060F31E01BDE8F3
:10553000F08D08DA18B02346BDE8F04D0246002091
:105540006146FBF717B818B02146BDE8F08D51450C
:1055500018DAB5F1804F0DD0A5F1005CBCF1FF5C0D
:1055600010D1B4F1000C0DDB18B06146BDE8F04D70
:1055700000F0CABC234618B00246BDE8F04D1946FB
:10558000FAF786BF060024F0004C3BD1D9B1514553
:1055900033D1002C06DD002DA1BF0020514618B0EC
:1055A000BDE8F08D002C01DD002D1BDB002C13DA93
:1055B000002D11DB012A4FF0000014BF78497C490F
:1055C00018B0BDE8F08D022A18BF002C0AD0012ABD
:1055D00008D1002C06DA0AE0002CB8BF002D11DA41
:1055E000012A04D0002018B00146BDE8F08D18B0A3
:1055F00000204FF00041BDE8F08DA1F14050B0F126
:105600007F601AD0012000EBE47050EA020421D040
:10561000624C521E4FF0000B104304BF4FF0000BC2
:10562000644C654883427CDD644A654893421FDDD3
:10563000884217DB002D25DB37E0002C00DA4AB169
:10564000022A0CBF01204FF0FF3018B0BDE8F04D2A
:10565000FBF724B80120FDF733FC18B0BDE8F04D8E
:10566000FDF709BC4D4A8A4202DC002D0ADC1CE031
:10567000814202DA002D18DA04E0484B994220DD1D
:10568000002D12DD0220FDF71BFCFDF7FAFB05469D
:105690000E460022534658462146FAF7F9FE18B046
:1056A00066F31E012846BDE8F08D0220FDF708FCD8
:1056B000FDF7EEFB0A46214618B062F31E01BDE875
:1056C000F08D002230466146FAF7DCFE80460E4639
:1056D0006FF00102FAF7BDFF4FF05532394BFAF780
:1056E000D4FE42463346FAF7D3FE0022364BFAF791
:1056F000CCFE824642463346049110461946FAF7DC
:10570000C7FE5246049BFAF7C3FE8A4600904FF04C
:10571000C0422E4B40463146FAF7BAFE2C4A2B4B7C
:1057200000E027E0CDE9060151460098FAF7B0FE07
:1057300082460191274A284B40463146FAF7A8FE97
:105740005246019BFAF79EFE82460B4602460591A1
:10575000DDE90601FAF7F5FDDDE9062300268846B6
:105760003046FAF78FFE5246059BFAF78EFE024648
:1057700000F07EB90020B1F5801F07DA35223046EF
:105780006146FAF766FF06466FF0340000EB2150E1
:1057900024E00000FFFF1F00FFFF0F000000F03FAC
:1057A0000000F07F0000404301FCFFFF46150000B1
:1057B0000000F0FF0000F0BF0000E0410000F043F7
:1057C000FFFFEF3F5555D53F0000E03F4715F73F3E
:1057D000FE822B6544DF5DF80BAE543EA0F2FF3035
:1057E0000190C1F3130040F07F6141F040510291FC
:1057F000FE498842D8BF002004DDFD498142C8BF70
:10580000012001DD0D9008E000200D900198401C62
:1058100001900298A0F5801002900299F548784412
:105820000B910D9900EBC100D0E900230F93304696
:105830000A920B99FAF726FECDE90601DDE90A2165
:1058400030460F9BFAF77DFD02460B460020EA49E1
:10585000FAF790FE059102460B460090DDE906013D
:10586000FAF716FE1490E5488A464FF0000878448F
:105870000299006812904FF0005040EA61010D98C3
:105880000F9B01EB804000F5002109910A9A1298C4
:10589000FAF7F8FD32460B9BFAF7F7FD42465346FE
:1058A000FAF7F6FD0646029140465146099B129AC8
:1058B000FAF7EEFDDDE90623FAF7E7FD3246029B33
:1058C000FAF7E0FD059B009AFAF7E2FD0091149AC1
:1058D0000490534610461946FAF7DAFD064602468A
:1058E000C7480B46029106217844FDF761FACDE9DD
:1058F0000510029B324610461946FAF7C9FDDDE94C
:105900000532FAF7C5FD059106465346404619464D
:10591000149AFAF716FD009B049AFAF7B9FD32467D
:10592000059BFAF70EFDCDE9051042465346104699
:105930001946FAF7ADFD0022B24B02910A90FAF730
:1059400000FDDDE90532FAF7FCFC0E464246AD4BA0
:105950004046FAF797FD029B0A9AFAF793FDDDE9B4
:105960000532FAF792FD424602910A9033461046FC
:105970005146FAF78DFDCDE906015346149A029976
:105980000A98FAF785FD8A46029033464246009906
:105990000498FAF77DFD5346029AFAF7D2FC824644
:1059A0000B4602460591DDE90601FAF7CAFCDDE97E
:1059B0000623002088460646FAF764FD5246059BFA
:1059C000FAF763FD824609914FF060428E4B3046F4
:1059D0004146FAF75DFD049006918C4A8A4B504689
:1059E0000999FAF755FD82460291894A894B30465A
:1059F0004146FAF74DFD5246029BFAF7A2FC864B50
:105A00007B440D9A03EBC203D3E90023FAF799FC18
:105A10000E9007910198FAF741FE0591DDE9061312
:105A200082460E9A0498FAF78CFC7C4A7A440D9BC5
:105A300002EBC303D3E9002300930292FAF781FC3F
:105A40005246059BFAF77DFC0026884652463046B2
:105A5000059BFAF717FD009B029AFAF713FD069BC8
:105A6000049AFAF70FFD079B0E9AFAF70EFD02460D
:105A700000200B46029038462946FAF709FD824677
:105A800001912B4638461946029AFAF7FBFC32463A
:105A90004346FAF7FDFC5246019BFAF752FC0746D3
:105AA0008A463246434629460298FAF7F1FC0546F3
:105AB0000E463A465346FAF744FC594A8846914204
:105AC00021DBA8EB020353EA000210D12A46334639
:105AD000FAF7D8FCCDE90401524A534B38465146F7
